:020000040800F2
:100000000050002021020008270200082B020008EF
:1000100043020008470200085F02000800000000D9
:10002000000000000000000000000000770200084F
:100030007B020008000000007F020008FD060008A7
:100040009102000891020008910200089102000844
:100050009102000891020008910200089102000834
:100060009102000891020008910200089102000824
:100070009102000891020008910200089102000814
:100080009102000891020008910200089102000804
:1000900091020008910200089102000891020008F4
:1000A00091020008910200089102000891020008E4
:1000B00091020008910200089102000891020008D4
:1000C00091020008910200089102000891020008C4
:1000D00091020008910200089102000891020008B4
:1000E000910200089102000891020008000000003F
:1000F0000000000000000000000000000000000000
:1001000000000000000000005FF808F100B583B0B7
:1001100000F0DEF8304B314A1360314A1360314B46
:10012000314A32498B4204D21168196004330432D7
:10013000F7E72A4B1A682E4B9A4200D0FEE7284B6D
:100140001A682C4B9A42F9D1234B2B4A13602B4A45
:1001500013602B4B02E000221A600433294A9342B9
:10016000F9D3254B1B6813B9244B1B6803B1FEE779
:1001700000F0BAF8694601A800F0A2F8224C234B1F
:10018000E41AA4100025AC4214DC214C214BE41AE3
:10019000A4100025AC4213DC0099019800F006FB86
:1001A00005461D4C1D4BE41AA410002C0EDC2846FD
:1001B00000F084F8154B53F8253098470135E2E7F5
:1001C000144B53F8253098470135E3E7013C134BB6
:1001D00053F824309847E8E7BABADECA0000002096
:1001E0002000002000000020180800082400002043
:1001F0007856341232547698240000205C00002097
:100200002400002060000020BC020008BC0200089E
:10021000BC020008BC020008BC020008BC020008C6
:1002200008B5FFF773FF00BEFEE71EF0040F0CBF1A
:10023000EFF30880EFF309807146124A104700BEC1
:10024000FEE700BEFEE71EF0040F0CBFEFF30880D0
:10025000EFF3098071460C4A104700BEFEE71EF01E
:10026000040F0CBFEFF30880EFF309807146074AD3
:10027000104700BEFEE700BEFEE700BEFEE700BE80
:10028000FEE770473F0200085B02000873020008A7
:0402900000BEFEE7C7
:1002940018080008000000202400002018080008A6
:1002A4000000000000000000240000206000002086
:0802B400000000000000000042
:1002BC00FEE7000001230360014B0B60704700BF99
:1002CC000400002008B500F073F8024A024B9A6053
:1002DC0008BD00BF0000000800ED00E008B500F00C
:1002EC008FF808BD82B00023019300932C4A136849
:1002FC0043F4803313602A4B1B6803F400330093E0
:10030C00019B01330193009B1BB9019BB3F5A06FBB
:10031C00F1D1234B1B6813F4003F06D0012300934B
:10032C00009B012B04D002B0704700230093F7E729
:10033C001C4B1A6842F010021A601A6822F0030271
:10034C001A601A6842F002021A60A3F580535A68C8
:10035C005A605A685A605A6842F480625A605A6805
:10036C0022F47C125A605A6842F4E8125A601A68F5
:10037C0042F080721A600A4B1B6813F0007FFAD0AF
:10038C00074B5A6822F003025A605A6842F0020284
:10039C005A60034B5B6803F00C03082BF9D1C2E7DE
:1003AC00001002400020024008B5FFF79BFF08BD7B
:1003BC0008B5104B1A6842F001021A6059680E4ACF
:1003CC000A405A601A6822F0847222F480321A6051
:1003DC001A6822F480221A605A6822F4FE025A60CB
:1003EC004FF41F029A60FFF7DFFF044B4FF00062DF
:1003FC009A6008BD001002400000FFF800ED00E01C
:10040C001F4B5B6803F00C03042B15D0082B17D083
:10041C001BB11C4B1C4A1A6002E01A4B1A4A1A6098
:10042C00174B5B68C3F30313184AD35CDAB2154954
:10043C000B68D3400B607047124B134A1A60EFE7FE
:10044C000F4A53685268C3F38343023312F4803F5C
:10045C000AD00B4A526812F4003F0BD00C4A02FB34
:10046C0003F3084A1360DBE7094A02FB03F3054A6E
:10047C001360D5E7044A02FB03F3024A1360CFE78B
:10048C00001002401C00002000127A000C0000201A
:10049C0000093D0070B4012825D018B1022844D0C1
:1004AC0070BC7047072910D90F29F9D82F4B586801
:1004BC0008398E000F21B14020EA010159605868BB
:1004CC0002FA06F101435960EAE7284B18688D00DF
:1004DC000F21A94020EA01011960186802FA05F100
:1004EC0001431960DCE7072911D90F29D8D8204816
:1004FC004468A1F108039B000F21994024EA0101F3
:10050C004160446802FA03F121434160C8E7184B8B
:10051C0018688C000F21A14020EA010119601868AD
:10052C0002FA04F101431960BAE7072910D90F291F
:10053C00B6D8104B5868083989000F248C4020EA33
:10054C0004005860586802FA01F101435960A7E7AA
:10055C00084B1C6888000F21814024EA01011960B6
:10056C001C6802FA00F12143196099E70008014068
:10057C00000C014000100140012812D010B10228DB
:10058C001ED07047012A06D012BB012303FA01F1D9
:10059C00134B59617047012303FA01F1104B196198
:1005AC007047012A06D09AB9012303FA01F10D4BC9
:1005BC0059617047012303FA01F10A4B1961704725
:1005CC00012A06D022B9012303FA01F1064B596125
:1005DC007047012303FA01F1034B1961704700BF07
:1005EC0000080140000C014000100140F8B5002447
:1005FC0008E004EB4405A900154A0A44013B1372B8
:10060C000134E4B2022C22D8254604EB44039A00B0
:10061C000F4B13445B68002BF2D00D4B13445B7AE9
:10062C00002BEDD10A4B13441B7A002BE1D1084E61
:10063C006700B31801215972B25A013A1A725B68F9
:10064C0098473D44AB001E4400237372D8E7F8BDB5
:10065C002C000020F0B4064C45002F18BE00A71942
:10066C00A1537A603B729DF810307B72F0BC7047DE
:10067C002C00002008B500F04DF803494FF47A70B7
:10068C0000F04EF808BD00BFF9050008064B4FF40A
:10069C0080321A6001225A605A685A601A6822F431
:1006AC0000221A60704700BF001002401F291CD89E
:1006BC0001280BD010B1022810D070470B484369A9
:1006CC00012202FA01F11943416170470748C369DD
:1006DC00012202FA01F11943C16170470348836991
:1006EC00012202FA01F119438161704700100240A6
:1006FC0008B5054B1B689847044B1B781BB9044B7A
:10070C0000225A609A6008BD580000205400002056
:10071C0010E000E0014B00221A60704710E000E08E
:10072C00074B58601A6842F001021A60054A012012
:10073C001070054A11601A6842F002021A60704784
:10074C0010E000E0540000205800002008B5054BD4
:10075C001A7882F001021A7000210846FFF70CFF8C
:10076C0008BD00BF5000002008B5054B1A7882F078
:10077C0001021A7001210020FFF7FEFE08BD00BF28
:10078C005100002008B5054B1A7882F001021A704E
:10079C0002210020FFF7F0FE08BD00BF5200002030
:1007AC0000B583B0FFF772FF02210846FFF77EFF0A
:1007BC00022200210846FFF76DFE022201210020D3
:1007CC00FFF768FE022211460020FFF763FE0024AB
:1007DC00009423460A4AE8212046FFF73BFF009489
:1007EC000123084AD0211846FFF734FF0094022356
:1007FC00054AB8211846FFF72DFFFFF73BFFFEE730
:0C080C0059070008750700089107000854
:100818007856341228000020000000000000000074
:1008280000000000010203040607080900A24A04A8
:040838003254769828
:040000050800010DE1
:00000001FF
