:020000040800F2
:100000000050002021020008270200082B020008EF
:1000100043020008470200085F02000800000000D9
:10002000000000000000000000000000770200084F
:100030007B020008000000007F020008690700083A
:100040009102000891020008910200089102000844
:100050009102000891020008910200089102000834
:100060009102000891020008910200089102000824
:100070009102000891020008910200089102000814
:100080009102000891020008910200089102000804
:1000900091020008910200089102000891020008F4
:1000A00091020008910200089102000891020008E4
:1000B00091020008910200089102000891020008D4
:1000C00091020008910200089102000891020008C4
:1000D00091020008910200089102000891020008B4
:1000E000910200089102000891020008000000003F
:1000F0000000000000000000000000000000000000
:1001000000000000000000005FF808F100B583B0B7
:1001100000F0DEF8304B314A1360314A1360314B46
:10012000314A32498B4204D21168196004330432D7
:10013000F7E72A4B1A682E4B9A4200D0FEE7284B6D
:100140001A682C4B9A42F9D1234B2B4A13602B4A45
:1001500013602B4B02E000221A600433294A9342B9
:10016000F9D3254B1B6813B9244B1B6803B1FEE779
:1001700000F0BAF8694601A800F0A2F8224C234B1F
:10018000E41AA4100025AC4214DC214C214BE41AE3
:10019000A4100025AC4213DC0099019800F00AFB82
:1001A00005461D4C1D4BE41AA410002C0EDC2846FD
:1001B00000F084F8154B53F8253098470135E2E7F5
:1001C000144B53F8253098470135E3E7013C134BB6
:1001D00053F824309847E8E7BABADECA0000002096
:1001E0008800002000000020E00700088C000020AC
:1001F00078563412325476988C0000209C000020EF
:100200008C000020A0000020BC020008BC020008F6
:10021000BC020008BC020008BC020008BC020008C6
:1002200008B5FFF773FF00BEFEE71EF0040F0CBF1A
:10023000EFF30880EFF309807146124A104700BEC1
:10024000FEE700BEFEE71EF0040F0CBFEFF30880D0
:10025000EFF3098071460C4A104700BEFEE71EF01E
:10026000040F0CBFEFF30880EFF309807146074AD3
:10027000104700BEFEE700BEFEE700BEFEE700BE80
:10028000FEE770473F0200085B02000873020008A7
:0402900000BEFEE7C7
:10029400E0070008000000208C000020E0070008B0
:1002A40000000000000000008C000020A0000020DE
:0802B400000000000000000042
:1002BC00FEE7000001230360014B0B60704700BF99
:1002CC000400002008B500F073F8024A024B9A6053
:1002DC0008BD00BF0000000800ED00E008B500F00C
:1002EC008FF808BD82B00023019300932C4A136849
:1002FC0043F4803313602A4B1B6803F400330093E0
:10030C00019B01330193009B1BB9019BB3F5A06FBB
:10031C00F1D1234B1B6813F4003F06D0012300934B
:10032C00009B012B04D002B0704700230093F7E729
:10033C001C4B1A6842F010021A601A6822F0030271
:10034C001A601A6842F002021A60A3F580535A68C8
:10035C005A605A685A605A6842F480625A605A6805
:10036C0022F47C125A605A6842F4E8125A601A68F5
:10037C0042F080721A600A4B1B6813F0007FFAD0AF
:10038C00074B5A6822F003025A605A6842F0020284
:10039C005A60034B5B6803F00C03082BF9D1C2E7DE
:1003AC00001002400020024008B5FFF79BFF08BD7B
:1003BC0008B5104B1A6842F001021A6059680E4ACF
:1003CC000A405A601A6822F0847222F480321A6051
:1003DC001A6822F480221A605A6822F4FE025A60CB
:1003EC004FF41F029A60FFF7DFFF044B4FF00062DF
:1003FC009A6008BD001002400000FFF800ED00E01C
:10040C001F4B5B6803F00C03042B15D0082B17D083
:10041C001BB11C4B1C4A1A6002E01A4B1A4A1A6098
:10042C00174B5B68C3F30313184AD35CDAB2154954
:10043C000B68D3400B607047124B134A1A60EFE7FE
:10044C000F4A53685268C3F38343023312F4803F5C
:10045C000AD00B4A526812F4003F0BD00C4A02FB34
:10046C0003F3084A1360DBE7094A02FB03F3054A6E
:10047C001360D5E7044A02FB03F3024A1360CFE78B
:10048C00001002401C00002000127A000C0000201A
:10049C0000093D0010B4012823D018B102283FD028
:1004AC0010BC704707290FD90F29F9D8A1F10804FE
:1004BC00A4000F23A3402A48016821EA030302FA8F
:1004CC0004F119430160EBE789000F2303FA01F0F3
:1004DC00244C236823EA000302FA01F1194321603A
:1004EC00DEE707290FD90F29DAD8A1F1080080001F
:1004FC000F2383401C4C216821EA030302FA00F10C
:10050C0019432160CCE789000F2303FA01F0174C43
:10051C00236823EA000302FA01F119432160BFE7C3
:10052C0007290FD90F29BBD8A1F108039B000F2075
:10053C0098400F4C216821EA000002FA03F10143B4
:10054C002160ADE789000F2303FA01F0094C236801
:10055C0023EA000302FA01F119432160A0E700BF6E
:10056C000408014000080140040C0140000C01404B
:10057C000410014000100140012812D010B10228D3
:10058C001ED07047012A06D012BB012303FA01F1D9
:10059C00134B19607047012303FA01F1114B1960D9
:1005AC007047012A06D09AB9012303FA01F10E4BC8
:1005BC0019607047012303FA01F10C4B1960704765
:1005CC00012A06D022B9012303FA01F1084B196064
:1005DC007047012303FA01F1064B1960704700BF05
:1005EC001408014010080140140C0140100C01408B
:1005FC00141001401010014010B500240AE0074B04
:10060C0003EB44010122497813F81400FFF7B4FFFF
:10061C000134E4B2072CF2D910BD00BF2000002039
:10062C0038B5054600240DE045FA04F2074B03EB00
:10063C00440102F00102497813F81400FFF79CFF03
:10064C000134E4B2072CEFD938BD00BF30000020D4
:10065C0010B500240AE00E4B03EB4401022249784A
:10066C0013F81400FFF716FF0134E4B2072CF2D98B
:10067C0000240AE0074B03EB44010222497813F8EB
:10068C001400FFF707FF0134E4B2072CF2D910BDB8
:10069C00300000202000002038B50546002413E06F
:1006AC00FFF7AAFF285DFFF7BBFF094B03EB4401E3
:1006BC000022497813F81400FFF75EFF40F6C410CF
:1006CC0000F064F80134E4B2072CE9D938BD00BF5E
:1006DC002000002070B506460D46002408E03019B5
:1006EC00FFF7DAFF49F6404000F050F80134E4B26D
:1006FC00AC42F4D970BD0000064B4FF480321A6046
:10070C0001225A605A685A601A6822F400221A6050
:10071C00704700BF001002401F291CD801280BD0C5
:10072C0010B1022810D070470B484369012202FA1D
:10073C0001F11943416170470748C369012202FA6C
:10074C0001F11943C161704703488369012202FA20
:10075C0001F11943816170470010024008B5054B47
:10076C001B689847044B1B781BB9044B00225A603A
:10077C009A6008BD980000209400002010E000E072
:10078C00014B00221A60704710E000E0054B5860E6
:10079C001A6842F001021A60024B1B6813F4803F86
:1007AC00FAD0704710E000E008B5FFF7A5FF022172
:1007BC000846FFF7B1FF03210220FFF7ADFFFFF75B
:1007CC00DFFFFFF745FF38210148FFF783FFFAE70A
:0407DC0040000020B9
:1007E0007856341290000020000000000000000045
:1007F00000000000010203040607080900A24A04E1
:100800000100010101050106010701080109010AB2
:1008100000000001000200030004000500060007BC
:1008200000000000000000007E040808047E0000B4
:100830007C0A0A0A0A7C00007E080808087E00007C
:100840007E040808047E00007E424242427E000090
:100850007E404040407E00007E424242423C0000DA
:0C086000000000000000FFFF32547698FA
:040000050800010DE1
:00000001FF
