:020000040800F2
:100000000050002021020008270200082B020008EF
:1000100043020008470200085F02000800000000D9
:10002000000000000000000000000000770200084F
:100030007B020008000000007F0200088302000825
:100040009102000891020008910200089102000844
:100050009102000891020008910200089102000834
:100060009102000891020008910200089102000824
:100070009102000891020008910200089102000814
:100080009102000891020008910200089102000804
:1000900091020008910200089102000891020008F4
:1000A00091020008910200089102000891020008E4
:1000B00091020008910200089102000891020008D4
:1000C00091020008910200089102000891020008C4
:1000D00091020008910200089102000891020008B4
:1000E000910200089102000891020008000000003F
:1000F0000000000000000000000000000000000000
:1001000000000000000000005FF808F100B583B0B7
:1001100000F0DEF8304B314A1360314A1360314B46
:10012000314A32498B4204D21168196004330432D7
:10013000F7E72A4B1A682E4B9A4200D0FEE7284B6D
:100140001A682C4B9A42F9D1234B2B4A13602B4A45
:1001500013602B4B02E000221A600433294A9342B9
:10016000F9D3254B1B6813B9244B1B6803B1FEE779
:1001700000F0BAF8694601A800F0A2F8224C234B1F
:10018000E41AA4100025AC4214DC214C214BE41AE3
:10019000A4100025AC4213DC0099019800F076FB16
:1001A00005461D4C1D4BE41AA410002C0EDC2846FD
:1001B00000F084F8154B53F8253098470135E2E7F5
:1001C000144B53F8253098470135E3E7013C134BB6
:1001D00053F824309847E8E7BABADECA0000002096
:1001E0002000002000000020C0090008240000209A
:1001F0007856341232547698240000209000002063
:100200002400002094000020BC020008BC0200086A
:10021000BC020008BC020008BC020008BC020008C6
:1002200008B5FFF773FF00BEFEE71EF0040F0CBF1A
:10023000EFF30880EFF309807146124A104700BEC1
:10024000FEE700BEFEE71EF0040F0CBFEFF30880D0
:10025000EFF3098071460C4A104700BEFEE71EF01E
:10026000040F0CBFEFF30880EFF309807146074AD3
:10027000104700BEFEE700BEFEE700BEFEE700BE80
:10028000FEE770473F0200085B02000873020008A7
:0402900000BEFEE7C7
:10029400C00900080000002024000020C009000854
:1002A4000000000000000000240000209400002052
:0802B400000000000000000042
:1002BC00FEE7000001230360014B0B60704700BF99
:1002CC000400002008B500F073F8024A024B9A6053
:1002DC0008BD00BF0000000800ED00E008B500F00C
:1002EC008FF808BD82B00023019300932C4A136849
:1002FC0043F4803313602A4B1B6803F400330093E0
:10030C00019B01330193009B1BB9019BB3F5A06FBB
:10031C00F1D1234B1B6813F4003F06D0012300934B
:10032C00009B012B04D002B0704700230093F7E729
:10033C001C4B1A6842F010021A601A6822F0030271
:10034C001A601A6842F002021A60A3F580535A68C8
:10035C005A605A685A605A6842F480625A605A6805
:10036C0022F47C125A605A6842F4E8125A601A68F5
:10037C0042F080721A600A4B1B6813F0007FFAD0AF
:10038C00074B5A6822F003025A605A6842F0020284
:10039C005A60034B5B6803F00C03082BF9D1C2E7DE
:1003AC00001002400020024008B5FFF79BFF08BD7B
:1003BC0008B5104B1A6842F001021A6059680E4ACF
:1003CC000A405A601A6822F0847222F480321A6051
:1003DC001A6822F480221A605A6822F4FE025A60CB
:1003EC004FF41F029A60FFF7DFFF044B4FF00062DF
:1003FC009A6008BD001002400000FFF800ED00E01C
:10040C001F4B5B6803F00C03042B15D0082B17D083
:10041C001BB11C4B1C4A1A6002E01A4B1A4A1A6098
:10042C00174B5B68C3F30313184AD35CDAB2154954
:10043C000B68D3400B607047124B134A1A60EFE7FE
:10044C000F4A53685268C3F38343023312F4803F5C
:10045C000AD00B4A526812F4003F0BD00C4A02FB34
:10046C0003F3084A1360DBE7094A02FB03F3054A6E
:10047C001360D5E7044A02FB03F3024A1360CFE78B
:10048C00001002401C00002000127A000C0000201A
:10049C0000093D00002304E0034A0021D15401333C
:1004AC00DBB2632BF8D970472C00002038B5054619
:1004BC000020044606E0284600F0CEF90D4B1855F6
:1004CC000134E4B2FF28F6D1002301E00133DBB2A2
:1004DC001946A21E93420ADA064AD25C4F2AF5D17B
:1004EC000131044A525C4B2AF0D1012000E000207B
:1004FC0038BD00BF2C00002008B5FFF7CBFF002053
:10050C0005E0094800F096F96420FFF7CFFF0028BA
:10051C00F7D0002005E0054800F08CF9C820FFF763
:10052C00C5FF0028F7D008BD58090008600900086D
:10053C0038B505460C46002011E00A4800F07AF95F
:10054C00284600F077F9084800F074F9204600F0CE
:10055C0071F9064800F06EF90548FFF7A7FF00286F
:10056C00EBD038BD440900083809000854090008CC
:10057C00E0C8100010B5044600200BE0074800F05E
:10058C0059F9204600F056F9054800F053F9054892
:10059C00FFF78CFF0028F1D010BD00BF2809000820
:1005AC003C090008E093040038B505460C460020D1
:1005BC000CE01E4800F03EF9284600F03BF91C48C0
:1005CC0000F038F94FF4FA70FFF770FF0028F0D004
:1005DC0000200BE0174800F02DF9204600F02AF916
:1005EC00134800F027F91448FFF760FF0028F1D0FA
:1005FC000023184601E00133DBB2632B14D81946F3
:10060C000E4AD25C2B2AF6D15A1C0C4CA25C492AFD
:10061C00F1D19A1CA25C502AEDD1DA1CA25C442ABE
:10062C00E9D10731605CE6E738BD00BF140900086A
:10063C004009000820090008A0BB0D002C00002078
:10064C0070B4012825D018B1022844D070BC704772
:10065C00072910D90F29F9D82F4B586808398E0063
:10066C000F21B14020EA01015960586802FA06F1E5
:10067C0001435960EAE7284B18688D000F21A94007
:10068C0020EA01011960186802FA05F101431960AA
:10069C00DCE7072911D90F29D8D820484468A1F1E3
:1006AC0008039B000F21994024EA01014160446832
:1006BC0002FA03F121434160C8E7184B18688C001B
:1006CC000F21A14020EA01011960186802FA04F117
:1006DC0001431960BAE7072910D90F29B6D8104B76
:1006EC005868083989000F248C4020EA04005860AF
:1006FC00586802FA01F101435960A7E7084B1C68DE
:10070C0088000F21814024EA010119601C6802FA5B
:10071C0000F12143196099E700080140000C0140E9
:10072C0000100140012812D010B102281ED07047D1
:10073C00012A06D012BB012303FA01F1134B5961B4
:10074C007047012303FA01F1104B19617047012A1C
:10075C0006D09AB9012303FA01F10D4B5961704788
:10076C00012303FA01F10A4B19617047012A06D0E3
:10077C0022B9012303FA01F1064B59617047012399
:10078C0003FA01F1034B1961704700BF00080140E7
:10079C00000C014000100140064B4FF480321A60EF
:1007AC0001225A605A685A601A6822F400221A60B0
:1007BC00704700BF001002401F291CD801280BD025
:1007CC0010B1022810D070470B484369012202FA7D
:1007DC0001F11943416170470748C369012202FACC
:1007EC0001F11943C161704703488369012202FA80
:1007FC0001F1194381617047001002400C4B4522F6
:10080C009A60DA6822F48052DA60DA6822F4806244
:10081C00DA60DA6842F00802DA60DA6842F0040260
:10082C00DA60DA6842F40052DA6000221A6070472B
:10083C0000380140002208E006494B60054B1B685C
:10084C0013F0400FFAD00132D2B2835C002BF3D1FB
:10085C00704700BF003801400023084A126812F0AC
:10086C00200F04D101338342F7D1FF2000E0002098
:10087C0010B9024B5868C0B2704700BF0038014035
:10088C0008B5FFF789FF02210846FFF795FF0E21F7
:10089C000220FFF791FF0B2209210020FFF7D0FE69
:1008AC0004220A210020FFF7CBFE02220021084679
:1008BC00FFF7C6FEFFF7A2FFFFF71EFE0D490E481D
:1008CC00FFF736FE04E0002211461046FFF72AFF20
:1008DC000A48FFF74FFE0A490A48FFF765FE302821
:1008EC00F1D03128F4D1012200210846FFF71AFF7C
:1008FC00EEE700BF700900087C09000884090008B5
:10090C0094090008BC09000841542B434950534535
:10091C004E443D00474554200000000041542B43F9
:10092C00495053544152543D22544350222C2200DE
:10093C00222C38300D0A000041542B43574A4150A9
:10094C005F4355523D220000220D0A0041544530B0
:10095C000D0A000041542B43574D4F44453D310D7A
:10096C000A000000333031313139393700000000D2
:10097C00376F4461000000003136322E3235332E91
:10098C003135352E32323600687474703A2F2F732D
:10099C00696D706C65696F742E66726565766172CF
:1009AC002E636F6D2F7374617475732E747874006D
:0409BC0034360000CD
:1009C00078563412280000200000000000000000CB
:1009D00000000000010203040607080900A24A04FF
:0409E000325476987F
:040000050800010DE1
:00000001FF
