:020000040800F2
:100000000050002021020008270200082B020008EF
:1000100043020008470200085F02000800000000D9
:10002000000000000000000000000000770200084F
:100030007B020008000000007F0200088D07000816
:100040009102000891020008910200089102000844
:100050009102000891020008910200089102000834
:100060009102000891020008910200089102000824
:100070009102000891020008910200089102000814
:100080009102000891020008910200089102000804
:1000900091020008910200089102000891020008F4
:1000A00091020008910200089102000891020008E4
:1000B00091020008910200089102000891020008D4
:1000C00091020008910200089102000891020008C4
:1000D00091020008910200089102000891020008B4
:1000E000910200089102000891020008000000003F
:1000F0000000000000000000000000000000000000
:1001000000000000000000005FF808F100B583B0B7
:1001100000F0DEF8304B314A1360314A1360314B46
:10012000314A32498B4204D21168196004330432D7
:10013000F7E72A4B1A682E4B9A4200D0FEE7284B6D
:100140001A682C4B9A42F9D1234B2B4A13602B4A45
:1001500013602B4B02E000221A600433294A9342B9
:10016000F9D3254B1B6813B9244B1B6803B1FEE779
:1001700000F0BAF8694601A800F0A2F8224C234B1F
:10018000E41AA4100025AC4214DC214C214BE41AE3
:10019000A4100025AC4213DC0099019800F084FB08
:1001A00005461D4C1D4BE41AA410002C0EDC2846FD
:1001B00000F084F8154B53F8253098470135E2E7F5
:1001C000144B53F8253098470135E3E7013C134BB6
:1001D00053F824309847E8E7BABADECA0000002096
:1001E00028000020000000206C0900082C000020DE
:1001F00078563412325476982C000020700100207A
:100200002C00002074010020BC020008BC02000881
:10021000BC020008BC020008BC020008BC020008C6
:1002200008B5FFF773FF00BEFEE71EF0040F0CBF1A
:10023000EFF30880EFF309807146124A104700BEC1
:10024000FEE700BEFEE71EF0040F0CBFEFF30880D0
:10025000EFF3098071460C4A104700BEFEE71EF01E
:10026000040F0CBFEFF30880EFF309807146074AD3
:10027000104700BEFEE700BEFEE700BEFEE700BE80
:10028000FEE770473F0200085B02000873020008A7
:0402900000BEFEE7C7
:100294006C090008000000202C0000206C090008F4
:1002A40000000000000000002C0000207401002069
:0802B400000000000000000042
:1002BC00FEE7000001230360014B0B60704700BF99
:1002CC000400002008B500F073F8024A024B9A6053
:1002DC0008BD00BF0000000800ED00E008B500F00C
:1002EC008FF808BD82B00023019300932C4A136849
:1002FC0043F4803313602A4B1B6803F400330093E0
:10030C00019B01330193009B1BB9019BB3F5A06FBB
:10031C00F1D1234B1B6813F4003F06D0012300934B
:10032C00009B012B04D002B0704700230093F7E729
:10033C001C4B1A6842F010021A601A6822F0030271
:10034C001A601A6842F002021A60A3F580535A68C8
:10035C005A605A685A605A6842F480625A605A6805
:10036C0022F47C125A605A6842F4E8125A601A68F5
:10037C0042F080721A600A4B1B6813F0007FFAD0AF
:10038C00074B5A6822F003025A605A6842F0020284
:10039C005A60034B5B6803F00C03082BF9D1C2E7DE
:1003AC00001002400020024008B5FFF79BFF08BD7B
:1003BC0008B5104B1A6842F001021A6059680E4ACF
:1003CC000A405A601A6822F0847222F480321A6051
:1003DC001A6822F480221A605A6822F4FE025A60CB
:1003EC004FF41F029A60FFF7DFFF044B4FF00062DF
:1003FC009A6008BD001002400000FFF800ED00E01C
:10040C001F4B5B6803F00C03042B15D0082B17D083
:10041C001BB11C4B1C4A1A6002E01A4B1A4A1A6098
:10042C00174B5B68C3F30313184AD35CDAB2154954
:10043C000B68D3400B607047124B134A1A60EFE7FE
:10044C000F4A53685268C3F38343023312F4803F5C
:10045C000AD00B4A526812F4003F0BD00C4A02FB34
:10046C0003F3084A1360DBE7094A02FB03F3054A6E
:10047C001360D5E7044A02FB03F3024A1360CFE78B
:10048C00001002401C00002000127A000C0000201A
:10049C0000093D00154BDB6813F0010FFAD1134B2B
:1004AC001B6913F0800F05D0104B114A5A6002F1F2
:1004BC0088325A600D4B1A6942F002021A618002AE
:1004CC0000F1006018601A6942F040021A61074B93
:1004DC00DB6813F0010FFAD1044BDA6842F020020A
:1004EC00DA601A6922F002021A6170470020024099
:1004FC002301674510B5042404E02046FFF7CAFF2A
:10050C000134E4B23E2CF8D910BD000030B482B0F6
:10051C001A4BDB6813F0010FFAD1184B1B6913F05F
:10052C00800F05D0154B164C5C6004F188345C6070
:10053C0000241DE0114D2B6943F001032B6131F8B0
:10054C001430ADF80630BDF806309BB220F8023BF3
:10055C000A4BDB6813F0010FFAD1084BDD6845F04C
:10056C002005DD601D6925F001051D610134E4B233
:10057C009442DFD302B030BC704700BF0020024071
:10058C002301674570B4012825D018B1022844D046
:10059C0070BC7047072910D90F29F9D82F4B586810
:1005AC0008398E000F21B14020EA010159605868CA
:1005BC0002FA06F101435960EAE7284B18688D00EE
:1005CC000F21A94020EA01011960186802FA05F10F
:1005DC0001431960DCE7072911D90F29D8D8204825
:1005EC004468A1F108039B000F21994024EA010102
:1005FC004160446802FA03F121434160C8E7184B9B
:10060C0018688C000F21A14020EA010119601868BC
:10061C0002FA04F101431960BAE7072910D90F292E
:10062C00B6D8104B5868083989000F248C4020EA42
:10063C0004005860586802FA01F101435960A7E7B9
:10064C00084B1C6888000F21814024EA01011960C5
:10065C001C6802FA00F12143196099E70008014077
:10066C00000C0140001001400246A0F13003D8B24A
:10067C00092802D9A2F13700C0B270472DE9F84F12
:10068C0006464378877847EA0317FFB2437990F818
:10069C0006801F4A518848EA031848EA032848EAAA
:1006AC00033848EA0148C2F80080002527E04FEAE9
:1006BC00850B0BF10903F05CFFF7D6FF81460BF1BC
:1006CC000A03F05CFFF7D0FF82460BF10B03F05CE2
:1006DC00FFF7CAFF04460BF10C0B16F80B00FFF7E3
:1006EC00C3FF240344EA002000B240EA0A0000B22F
:1006FC0040EA0910074B23F815000135EDB27A08D2
:10070C00AA42D4D803494046FFF700FFBDE8F88F52
:10071C00200000203C00002008B5037A302B00D0CC
:10072C0008BDFFF7ABFFFBE7034B81221A600022E9
:10073C005A605A685A607047001002401F291CD832
:10074C0001280BD010B1022810D070470B48436918
:10075C00012202FA01F11943416170470748C3694C
:10076C00012202FA01F11943C16170470348836900
:10077C00012202FA01F11943816170470010024015
:10078C0008B5054B1B689847044B1B781BB9044BE9
:10079C0000225A609A6008BD080100200401002064
:1007AC0010E000E0014B00221A60704710E000E0FE
:1007BC00074B58601A6842F001021A60054A012082
:1007CC001070054A11601A6842F002021A607047F4
:1007DC0010E000E00401002008010020064B1A681C
:1007EC0022F001021A601A6822F002021A6000223A
:1007FC005A609A60704700BF10E000E00D4B40F269
:10080C0041329A60DA6822F48052DA60DA6822F4B3
:10081C008062DA60DA6842F00802DA60DA6842F084
:10082C000402DA60DA6842F40052DA6000221A60DC
:10083C00704700BF00380140002208E006494B60B9
:10084C00054B1B6813F0400FFAD00132D2B2835C17
:10085C00002BF3D1704700BF00380140054B1B68DB
:10086C0013F0200F04D0034B5B680370012070471A
:10087C00002070470038014008B5044B044A1A6048
:10088C00044B1B68044A1360984708BD08ED00E050
:10089C0000100008041000083400002008B5FFF711
:1008AC0043FF02210846FFF749FF0E210220FFF704
:1008BC0045FF04210020FFF741FF0A2209210020F7
:1008CC00FFF760FE04220A210020FFF75BFEFFF712
:1008DC0069FFFFF793FF1A491A48FFF769FF1A4B94
:1008EC001B7863BB194B1B7819481844FFF7B6FFEC
:1008FC000128F4D1FFF772FF144B1B78DBB2144ABA
:10090C00D35CDBB20A2B05D0104A13780133DBB26F
:10091C001370E4E70F4B1B78DBB2012B09D00C48AA
:10092C00FFF7FAFE0C48FFF787FF084B00221A70FE
:10093C00D5E7FFF7DFFD074B00221A70EFE708BD84
:10094C0085080008C0E1E4003900002038000020D0
:10095C000C01002024000020680900086F6B0000C7
:10096C007856341230000020000000000000000017
:10097C0000000000010203040607080900A24A0453
:0C098C000000000801FFFFFF32547698C5
:040000050800010DE1
:00000001FF
