:020000040800F2
:100000000050002021020008270200082B020008EF
:1000100043020008470200085F02000800000000D9
:10002000000000000000000000000000770200084F
:100030007B020008000000007F020008D1060008D3
:100040009102000891020008910200089102000844
:100050009102000891020008910200089102000834
:100060009102000891020008910200089102000824
:100070009102000891020008910200089102000814
:100080009102000891020008910200089102000804
:1000900091020008910200089102000891020008F4
:1000A00091020008910200089102000891020008E4
:1000B00091020008910200089102000891020008D4
:1000C00091020008910200089102000891020008C4
:1000D00091020008910200089102000891020008B4
:1000E000910200089102000891020008000000003F
:1000F0000000000000000000000000000000000000
:1001000000000000000000005FF808F100B583B0B7
:1001100000F0DEF8304B314A1360314A1360314B46
:10012000314A32498B4204D21168196004330432D7
:10013000F7E72A4B1A682E4B9A4200D0FEE7284B6D
:100140001A682C4B9A42F9D1234B2B4A13602B4A45
:1001500013602B4B02E000221A600433294A9342B9
:10016000F9D3254B1B6813B9244B1B6803B1FEE779
:1001700000F0BAF8694601A800F0A2F8224C234B1F
:10018000E41AA4100025AC4214DC214C214BE41AE3
:10019000A4100025AC4213DC0099019800F04EFB3E
:1001A00005461D4C1D4BE41AA410002C0EDC2846FD
:1001B00000F084F8154B53F8253098470135E2E7F5
:1001C000144B53F8253098470135E3E7013C134BB6
:1001D00053F824309847E8E7BABADECA0000002096
:1001E000200000200000002094A800082400002027
:1001F00078563412325476982400002034000020BF
:100200002400002038000020BC020008BC020008C6
:10021000BC020008BC020008BC020008BC020008C6
:1002200008B5FFF773FF00BEFEE71EF0040F0CBF1A
:10023000EFF30880EFF309807146124A104700BEC1
:10024000FEE700BEFEE71EF0040F0CBFEFF30880D0
:10025000EFF3098071460C4A104700BEFEE71EF01E
:10026000040F0CBFEFF30880EFF309807146074AD3
:10027000104700BEFEE700BEFEE700BEFEE700BE80
:10028000FEE770473F0200085B02000873020008A7
:0402900000BEFEE7C7
:1002940094A80008000000202400002094A800086E
:1002A40000000000000000002400002038000020AE
:0802B400000000000000000042
:1002BC00FEE7000001230360014B0B60704700BF99
:1002CC000400002008B500F073F8024A024B9A6053
:1002DC0008BD00BF0000000800ED00E008B500F00C
:1002EC008FF808BD82B00023019300932C4A136849
:1002FC0043F4803313602A4B1B6803F400330093E0
:10030C00019B01330193009B1BB9019BB3F5A06FBB
:10031C00F1D1234B1B6813F4003F06D0012300934B
:10032C00009B012B04D002B0704700230093F7E729
:10033C001C4B1A6842F010021A601A6822F0030271
:10034C001A601A6842F002021A60A3F580535A68C8
:10035C005A605A685A605A6842F480625A605A6805
:10036C0022F47C125A605A6842F4E8125A601A68F5
:10037C0042F080721A600A4B1B6813F0007FFAD0AF
:10038C00074B5A6822F003025A605A6842F0020284
:10039C005A60034B5B6803F00C03082BF9D1C2E7DE
:1003AC00001002400020024008B5FFF79BFF08BD7B
:1003BC0008B5104B1A6842F001021A6059680E4ACF
:1003CC000A405A601A6822F0847222F480321A6051
:1003DC001A6822F480221A605A6822F4FE025A60CB
:1003EC004FF41F029A60FFF7DFFF044B4FF00062DF
:1003FC009A6008BD001002400000FFF800ED00E01C
:10040C001F4B5B6803F00C03042B15D0082B17D083
:10041C001BB11C4B1C4A1A6002E01A4B1A4A1A6098
:10042C00174B5B68C3F30313184AD35CDAB2154954
:10043C000B68D3400B607047124B134A1A60EFE7FE
:10044C000F4A53685268C3F38343023312F4803F5C
:10045C000AD00B4A526812F4003F0BD00C4A02FB34
:10046C0003F3084A1360DBE7094A02FB03F3054A6E
:10047C001360D5E7044A02FB03F3024A1360CFE78B
:10048C00001002401C00002000127A000C0000201A
:10049C0000093D0070B4012825D018B1022844D0C1
:1004AC0070BC7047072910D90F29F9D82F4B586801
:1004BC0008398E000F21B14020EA010159605868BB
:1004CC0002FA06F101435960EAE7284B18688D00DF
:1004DC000F21A94020EA01011960186802FA05F100
:1004EC0001431960DCE7072911D90F29D8D8204816
:1004FC004468A1F108039B000F21994024EA0101F3
:10050C004160446802FA03F121434160C8E7184B8B
:10051C0018688C000F21A14020EA010119601868AD
:10052C0002FA04F101431960BAE7072910D90F291F
:10053C00B6D8104B5868083989000F248C4020EA33
:10054C0004005860586802FA01F101435960A7E7AA
:10055C00084B1C6888000F21814024EA01011960B6
:10056C001C6802FA00F12143196099E70008014068
:10057C00000C014000100140012812D010B10228DB
:10058C001ED07047012A06D012BB012303FA01F1D9
:10059C00134B59617047012303FA01F1104B196198
:1005AC007047012A06D09AB9012303FA01F10D4BC9
:1005BC0059617047012303FA01F10A4B1961704725
:1005CC00012A06D022B9012303FA01F1064B596125
:1005DC007047012303FA01F1034B1961704700BF07
:1005EC0000080140000C014000100140064B4FF484
:1005FC0080321A6001225A605A685A601A6822F4D2
:10060C0000221A60704700BF001002401F291CD83E
:10061C0001280BD010B1022810D070470B48436949
:10062C00012202FA01F11943416170470748C3697D
:10063C00012202FA01F11943C16170470348836931
:10064C00012202FA01F11943816170470010024046
:10065C000E4B4FF440721A601A6822F080021A6036
:10066C001A6842F003021A601A6842F004021A6017
:10067C001A6842F002021A601A6842F002021A600A
:10068C001A6842F040021A60704700BF0030014007
:10069C0038B505460C46002211461046FFF76CFF94
:1006AC00074BDD60064B9B6813F0800FFAD1044BAF
:1006BC00DB682370012200210846FFF75DFF38BD7F
:1006CC000030014008B5054B1B689847044B1B785C
:1006DC001BB9044B00225A609A6008BD3000002000
:1006EC002C00002010E000E0014B00221A60704743
:1006FC0010E000E0054B58601A6842F001021A60E5
:10070C00024B1B6813F4803FFAD0704710E000E0F6
:10071C0010B582B00446012202210020FFF72CFF05
:10072C000DF107012046FFF7B3FF02B010BD10B565
:10073C0082B00446002202211046FFF71DFF0DF186
:10074C0007012046FFF7A4FF02B010BD08B5012237
:10075C0011460020FFF710FF6420FFF7CBFF0022AB
:10076C0001211046FFF708FF0120FFF7C3FF01220C
:10077C0011460020FFF700FF6420FFF7BBFF0022AB
:10078C0001211046FFF7F8FE6420FFF7B3FF0122AA
:10079C0011460020FFF7F0FE0948FFF7ABFF1120D0
:1007AC00FFF7C5FF0748FFF7A5FF3A20FFF7BFFF8C
:1007BC000520FFF7ADFF2920FFF7B9FF08BD00BFEB
:1007CC00C0D40100F049020038B505462A20FFF7D5
:1007DC00AEFF0020FFF79CFF0020FFF799FF0020E1
:1007EC00FFF796FF7F20FFF793FF2B20FFF79FFF6C
:1007FC000020FFF78DFF0020FFF78AFF0020FFF796
:10080C0087FF9F20FFF784FF2C20FFF790FF002429
:10081C000AE035F81400000AFFF77AFF15F8140007
:10082C00FFF776FF0134A4B2B4F5A04FF1D338BD75
:10083C0008B5FFF7DBFE02210846FFF7E7FE0C21A7
:10084C000220FFF7E3FE022201210020FFF722FE27
:10085C00022211460020FFF71DFE0922052100206F
:10086C00FFF718FE092207210020FFF713FEFFF700
:10087C003BFFFFF7EDFEFFF769FF0248FFF7A4FF10
:10088C00FEE700BF94080008FAF6FAEEF9EEF9EE6E
:10089C0019EFF9E6FAE61BE71BE7FBDE1BE71AE7A5
:1008AC003AEF18E717E7B8F7B7F7D7F7B7F7B7F78F
:1008BC00B7F797F797FF76FF35FF36FF56FF57FFD1
:1008CC0057FF17FF17FF17FF37FFF6F617F758FFFD
:1008DC0018F718EF39F719EF19EF19EF1AEF3AEF7C
:1008EC003AEF19EF19EF3AEF5AF73AEF19EF3AEFEF
:1008FC003AEF3AEF3AEF3AEF3AEF19EF1AEFF9EE27
:10090C003AF719EF19EF39F73AF71AEF1AEF1AE726
:10091C003AEF3AEFD8DE19EF3AEF19EF19EF39EF5A
:10092C003AEF5AEF5AEF7BEF5BF71AEF3BEF1BEF07
:10093C001BEF3BEF1BE73BE73BE77BE75AE75AE74D
:10094C007AE77AE77AE739DF58DF58DF79E77AE731
:10095C009BE7BCE79DE79DE7BDE7BDEFDEEFDEF76C
:10096C00DEF7DEF7FFFFFFFFDFFFDFFFDFFFDFFF5D
:10097C00DFFFDFFFFFFFFFFFDFFFDFFFDFFFDFFF3B
:10098C00DFFFDFFFFFFFFFFF2B7BE972A8628862AE
:10099C00875A464A064206420742E739E639E539A4
:1009AC00264AA65A476B6B8CADB50FC60FC60FC641
:1009BC0030CE0FCE30D60FD6CED58DCD6DCD4DCD14
:1009CC002DC5EDBCACB46BACEA9BA993688B68836A
:1009DC00287B087B0973E972E96AE96AC96AC96A02
:1009EC00C96AC962C862C862C862C862C862C862A1
:1009FC00C862C862C96AE96AC86AC86A096BE96AE6
:100A0C002A73E972E86A0973C96AC96AC96A886291
:100A1C00A862C9628862E96A2A73096BE86A096B81
:100A2C00E96AE862C962E962C962A85AA95AA95A74
:100A3C00A95AC95AC95A095B4A636A6349638A63EA
:100A4C00AA6BAA6BCB6BCB6BEA6B0B742C746E7CA6
:100A5C00D08C539DB5A517B698C6B9CEFAD63BDF48
:100A6C007CE79DEFDEF7FFF7DEFFDEFFDEFFDEFF4C
:100A7C00DEFFDEFFDFFFDFFFDEFFDFFFDFFFDEFF7E
:100A8C00DEFFDEFFDFFFDFFF0A7BA8726662465ADD
:100A9C0026520542C439843185318531A531C4399A
:100AAC000442655226632A846AB5ECC5EDC50DCEA9
:100ABC000DCE0DCE0DD60DDE8BD509C5E9C40ACDF4
:100ACC00EAC4CAC48ABC08AC899B4893E782C67A3C
:100ADC00C77AE87AC87AA872876A676247624762FF
:100AEC004762465A265A265A465A465A47626762FF
:100AFC006762676267628762465A4762876AA86A5A
:100B0C00C872876A876AA76A476247624762E5517B
:100B1C00065A6762265A6762C872A772A76AA76AE2
:100B2C00A76A675A665A875AA75A87528752664AE3
:100B3C00674AA752A752C752285B285B275B68639A
:100B4C0088638863A963A963C963CA63CB6B0C6CA4
:100B5C006E7CF18CB5A537B678BEB9C6FACE1BD76C
:100B6C005CDF9DEFDEEFDEF7DEFFDEFFDEFFDEFF9C
:100B7C00DEFFDEFFDEFFDEFFDEFFDEFFDEFFDEFF81
:100B8C00DEFFDEFFDEFFDFFF2983C87A866A66623E
:100B9C00665A4652264A0642E639E639E539E539BF
:100BAC00454AC55A67738B9489BDEBCDEBCDECCD23
:100BBC000CD60CD60CDEECDD8ADD08CDE8CC09D5E4
:100BCC00E9CCC9CC88C4E6ABA9A3689BE68AA6820B
:100BDC00C782E88AA78267726772676A476A676A20
:100BEC00676A466A2662065A055A255A2662466282
:100BFC0046624762676A676A4762676A8772A87269
:100C0C00E87A66728772A87A476A266A266A06624A
:100C1C00676AA872266A676AA87AA77A8772A77227
:100C2C00A77266624662A86AC75AC65AC7528652EB
:100C3C00A652C752C752E7526863675B475BA8630B
:100C4C00C863A763C863C86BEA6BEA6B0B6C4D7423
:100C5C008F7C118DD5A558B678BEB9C6FACE3BD7C8
:100C6C007CE7BEEFFFF7FFF7DEFFDEFFDEFFDEFF08
:100C7C00DEFFDEFFDFFFDFFFDEFFDFFFDFFFDEFF7C
:100C8C00DEFFDEFFDFFFDFFF298BE782A672866ABD
:100C9C0066624552254A0642063AE539C539E439B9
:100CAC00444AE562A77BAB9C69BDCBCDCBCDEBCDEC
:100CBC000CD60CDE0CE6EBE58ADD08D509D529DD72
:100CCC00C9D4A8CC68C4C6B3C9B388A30793A68AF1
:100CDC00C78AE88AA78246722672466A466A466ABC
:100CEC00466A266206620662E559055A055A055A95
:100CFC0026624662466246624662466A676AA77A1E
:100D0C00C87A466A6672877A466A0562266A266AD5
:100D1C0067726772066A4672C882A77AA77AA77A40
:100D2C00877246624662A76AA652854A654A654A38
:100D3C00854AC652E652275B675B675B665BC76397
:100D4C00E86BC863E86B086CC963CA63EB632C6C13
:100D5C008E7C118DD5A557B657B698BEDAC61BD763
:100D6C005CDFBDEFFFF7FFF7DEFFDEFFDEFFDEFF30
:100D7C00DEFFDFFFDFFFDFFFDFFFDFFFDFFFDFFF78
:100D8C00DEFFDFFFDFFFFFFF489B2793E682A672A3
:100D9C00866A665A4552264A0542053A0542454A34
:100DAC00C65A476BE883CB9CABC5ECCDCCCDCCCD38
:100DBC000DD60DDEECDDABDD6ADD09D50ADD2ADDF5
:100DCC00CAD489CC48C4E7B3A9AB47A3C692858AD9
:100DDC00A682C78AC782667A4572266A266A266AFE
:100DEC002562056225622662055A055A055A055A7E
:100DFC00266246624662266225622562466AA772B0
:100E0C00E87A256A6672877205620562466A266A06
:100E1C00466A266AE561677AC88AA77AA77AC77A8A
:100E2C0086726662876AC86AC75A654A454A4542ED
:100E3C00864AC6520753685B675B875B875BE863D0
:100E4C00086C086C086C086C0A6C0A640B642C6CDB
:100E5C00AF7C528DD5A537AE77B6B9BEFACE3BD79F
:100E6C007CDFBEE7DEEFFFF7DEFFDEFFDEFFDEFF3F
:100E7C00DEFFDEFFDFFFDFFFDFFFDFFFDFFFDEFF79
:100E8C00DEFFDEFFDFFFDFFF68A3479B068BC67A22
:100E9C00A66A86626652464A264205422542444A62
:100EAC00C65A8773498C2CADCCCD2ED60DD60DD60B
:100EBC000DD60DDECDDD8BD56BDD2AD50ADD0BDD38
:100ECC00CAD48ACC28BCC7B3C9AB479BE692A582CF
:100EDC00857A867A867A4572466A456A25622562E3
:100EEC002562255A055A255A05520552E451E451FA
:100EFC000552255A255A0552055A255A255AA76ACC
:100F0C00E8722562866AA77204622562466A2562C7
:100F1C0025620562C4616672E882667266728672C8
:100F2C0045626662C76AA762C75A454A254245426E
:100F3C00864AC752E752485B8863A863A763E86B8D
:100F4C00096C086C096C096CE963EA63EA632C6C44
:100F5C00CF7C939D15AE36AE37AE98BED9C61ACFA0
:100F6C005CDFBEEFFFF7FFF7DEFFDEFFDEFFDEFF2D
:100F7C00DEFFDEFFDEFFDFFFDFFFDFFFDFFFDEFF79
:100F8C00DEFFDEFFDFFFDFFFC9B3A8AB479B068B9D
:100F9C00C67AA66A665A4652664A464A654A6552F7
:100FAC00E6626773088C0CADCCC52ED62ED60DD64A
:100FBC000DD6EDD5CCD56BD54AD50AD5EAD40AD504
:100FCC00EBD4AACC49BCE8B3C8AB479B0693E68AE2
:100FDC00A582C67AE782A672456A45624562466278
:100FEC00465A255A0452E451055225522552054AB7
:100FFC00055205522552255225522552045286621D
:10100C00C76A255A866AC772245A256266622562A7
:10101C0025622562E461466A298B86728672866A2D
:10102C0045628762E86AA75A875A05420542464AD2
:10103C00A752C85207536863A963C96BC863E96BAD
:10104C00096C296C2A74096C0A640A640B644C6C74
:10105C00F084D49D35AE36AE57B6B8BEFACE1AD79C
:10106C005CDFBDEFDEF7DEF7DEFFDEFFDEFFDEFF6F
:10107C00DEFFDEFFDFFFDFFFDFFFDFFFDFFFDFFF76
:10108C00DFFFDFFFDFFFFFFFE9BBA8B367A32693FA
:10109C00C67AC672A762665A875A665265526452FD
:1010AC00E662A8832994CBA4CBC50DCE0DD60DD664
:1010BC00ECD5ECD5CCD549CD29CD09CDC8CCC9CCF6
:1010CC00CAD4AACC49C4E8B3C9AB679B068BE682E9
:1010DC00C57AC67AA67A867245624562666266628F
:1010EC00665A255A05520452055225522552054A74
:1010FC00054A054AE549044A054AE4492552455A38
:10110C00A76A255A255A097B255A4562A76A466261
:10111C00055AE4592562877229838772E87AA76A8F
:10112C00455AC762C862A75A47520542264A464AE0
:10113C00A752C852E7526963A963A963C86BE96BEC
:10114C00096C296C2A6C0A6CE9630A6C0B6C4C7484
:10115C00318DB39D36AE56B698BEB8C6D9C61AD721
:10116C005CDFBDEFDEF7DEF7BEF7BEF7BEF7DEFFE6
:10117C00BEF7BEF7DEFFDFFFDEFFDFFFDFFFDEFFC8
:10118C00DEFFDEFFDFFFFFFF29C4E9BBA8AB479BF7
:10119C00E682C672C76AA762865A655A855A845A0D
:1011AC00056BA7830894AAA4ABC50CD60DD60DD697
:1011BC000CD6ECD5CBD529CD08CDE8CCA7CC88CC9A
:1011CC0088CC68C448C407B4C9AB689B2793E68A2B
:1011DC00A582A67AA67A8672456A456266626662BE
:1011EC006662465A25520552055226522652054A27
:1011FC00E549E549E549E549054AE54905522552E0
:10120C008762255A255AE872255A4662C872466288
:10121C00055AC4512662A872A772666AE87AC87227
:10122C006662A862675A46524652054A264A875257
:10123C00C85AE85AE75A6863A863C86BE86B086C2D
:10124C00096C2974296C096CE9630A6C2B6C4C745D
:10125C00308D939D15AE56B697BEB8C6D9C6FAD684
:10126C005BDFBDEFDEF7DEF7BEF7BEF7BEF7BEF70E
:10127C00BEF7BEF7DEFFDFFFDEFFDFFFDFFFDEFFC7
:10128C00DEFFDEFFDFFFFFFF29C409BC09BCA8A3FA
:10129C00278BC67AC672E76AC662A662C562C56A41
:1012AC00467BC78B289CAAAC8BCDECD5EDDD0DDE37
:1012BC00ECDDECDDABDD29D5E8CCC8D487CC26C47D
:1012CC0007BC27BC48C408BCA8AB67A32793E68A15
:1012DC00A582A57AA67A8672666A466A666A676A83
:1012EC00676A4662055A0552E5490652265A055266
:1012FC00C549C549C549C541E549C549E5490552F1
:10130C006762055A055AA87205622662876A2662C8
:10131C00E559A451065A8872466A466AC872876AA9
:10132C004762675A2652064A4652254A4652A75ADF
:10133C00E85A075B075B6763A763C86B086C086CAC
:10134C00096C296C296C096C0A6C0A6C2B744C7432
:10135C00108D929D15AE76B697BE98C6B8C6F9D6C6
:10136C005BDFBDEFDEF7BEF7BEF7BEF7BEF7BEF72D
:10137C00BEF7BEF7BEF7DFFFDEFFDEFFDEFFDEFFF0
:10138C00DEFFDEFFDFFFFFFF08BC08BC4AC409B468
:10139C00889B0683E67A06730673E67206732673D9
:1013AC008783C893299CAAB44BCDACD5CDDDCDDDBC
:1013BC00EDE5EDE5ACE54ADDE9D4E9D467CC07C44D
:1013CC00E7BB08BC29C4E8BBA8AB67A3279BE69284
:1013DC00A5828582867A667A667266726672877272
:1013EC00676A2662E559E559C551065A265AE551F0
:1013FC00C549C549C549C549C549A449C549C54992
:10140C00065A065AE559886A0562E5592662055A54
:10141C00065AC551E559266246624662676A4662BB
:10142C00265A2652E549E649454A455266528652A5
:10143C00E75A075B275B665B8763C76B086C086CB6
:10144C00286C296C296C296C4B742A6C6C746D7C1F
:10145C00308DB29D35AE96BE97BEB7C6B8CEF9D616
:10146C005BE7BDEFDEF7BDEFBEF7BEF7BEF7BEF72D
:10147C00BEF7BEF7DEFFDEFFDEFFDEFFDEFFDEFFC8
:10148C00DEFFDEFFDFFFFFFF07BC28BC69C46ABCC0
:10149C00E9AB8793478B47834783267B267B668301
:1014AC00A78BC79328A48AB42BCD8DDDADDDADDD24
:1014BC00CEE5CDE5CDE58CE5E9D4EAD468CC27C4FE
:1014CC0008BC08BC29C4E9BBA8AB67A3269BE69261
:1014DC00A58AA682A682657A657266726672877222
:1014EC00676A0662E559E559E551065A0652C5493F
:1014FC00C549C549C541A441C541A441A441A44124
:10150C00C551E551E55147620562E5592662065A17
:10151C00265A0652E551065A265A465A465A265A11
:10152C00275A0652A541A541254A86528652A652F3
:10153C00E75A27636763665B8763C763086C286C2D
:10154C00286C296C296C296C4B742B6C8C7C8D7CD5
:10155C00308DD3A555B696BE97BEB7C6D8CE19D783
:10156C005ADFDCEFDDF7BDEFBEF7BEF7BEF7BEF717
:10157C00DEFFBEF7DEFFDEFFDEFFDEFFDEFFDEFF9F
:10158C00DEFFDEFFDFFFFFFF27BC28BC69BC69BCA8
:10159C0029ACE8A3C89BA893878B878B6683868B23
:1015AC00C793A69308A489AC2CCDADDD8DDD8DDD64
:1015BC00CEE5CDE5ADE5ACE50AD5EAD488CC28C4BA
:1015CC0028BC29BC29BCE9B3A8AB87A3269BE6920F
:1015DC00C68AC68AC682857A6572456A466A66720A
:1015EC00666A466A0562056205520552E551E5498F
:1015FC00C441A441A439A439C441A441A441A44187
:10160C00A441E551E549265A2562255A876247626D
:10161C00465A265225524652465A265205522652B0
:10162C002652064AC541C541254A8752A752C75A78
:10163C00075B285B6863675B875BC7630864086448
:10164C00296C296C4A6C4A6C4B742B6CAD7CAD7C50
:10165C00308DF3A576B696BE96BED7C6F8CEF8CE2C
:10166C003ADFBCEFDDF7DDF7BEF7BEF7BEF7BEF72E
:10167C00DEFFDEFFBEF7DEFFDEFFDEFFDEFFDEFF9E
:10168C00DEFFDEFFDFFFFFFF27BC27BC48BC49BCE9
:10169C0029B429AC29A4089CE89BC79BA693E79B7B
:1016AC00089CE79B28AC8AB44CCDCEDDADD5ADD52E
:1016BC00EEDDCDDDACDDACDD2AD509D588C448BC6A
:1016CC0028BC08B429B4E8ABC8ABA7A3679B269386
:1016DC00068B068B078BC67AC67A6572456A666A74
:1016EC00866A666A26622562E549054A054A054A04
:1016FC00E441C439A439C439C439C439C439C441E6
:10170C00A439054AE549064A055A465AA762675A5A
:10171C004652254A254A464A6652254A0542054202
:10172C000542E541E6410642464A67526652A752D7
:10173C00E85AE752275B675B875BC863E863096419
:10174C00296C4A6C4B6C4B6C6B744B6CCD7CAD7CCC
:10175C002F8D14AE96B696BE96BED7C6D7C6B7C654
:10176C00F8CE7ADFDCEFFDF7BEF7BEF7BEF7BEF7BB
:10177C00DEFFBEF7BEF7BEF7DEFFDEFFDEFFDEFFED
:10178C00DEFFDEFFDFFFFFFF06B427BC48BC48BC12
:10179C0029B449B44AAC29A4089C089CC79B28A42A
:1017AC0048A407A469ACCABC4BC5CDDDCDD5CDD5FD
:1017BC000DDECDDDACDD8BDD4AD509D588C467BC2B
:1017CC0027B407AC08ACE8ABC8ABA8AB87A3479B66
:1017DC00068B268B278B0783078386724562456AA7
:1017EC00866A666A2562055AE449044A254A254AEE
:1017FC000542C439C431E439E439E539E539E54108
:10180C00C439054AE541054A04522552875A4652C5
:10181C00464A254225420542454A25420442254274
:10182C000542E53906420642674A474A2642875234
:10183C00C7526642C64A475B885BC863E963096462
:10184C002A644B6C4B6C4B6C6B744B6CED84AD7CA9
:10185C002F8D34AEB6BEB6BE96BED7C6B7C696BE34
:10186C0097C639D7BCEFFDF7BEF7BEF7BEF7BEF78C
:10187C00BEF7BEF7BEF7BEF7DEFFDEFFDEFFDEFF14
:10188C00DEFFDEFFDFFFFFFFE8B349BC49BC49BC0C
:10189C0069BC68B468B427AC06A407A448A468ACB7
:1018AC0047A467ACA8B4E9BC6CCDCEDDADD5ADD545
:1018BC00EDDDACDDACD58BD5E9CCE9CCC9C4A9C484
:1018CC0027B4E6B348BCE7B3A7A387A387A3269B9B
:1018DC00479B2793078BA682E782E7826572456A4E
:1018EC00A77287724662255AE249C241E249E3492E
:1018FC00E441E641C539A339E339E339C541A74190
:10190C00A741C641C441C341E5494552455A064A1F
:10191C00C6492752E441C341C541E641C441E441B3
:10192C00E641C739E741E641674A2642264246422C
:10193C00664A6642A64A685BA863C963096C096477
:10194C00E963296C4A6C4A6C4B748C7CAD7CCD7C05
:10195C00708D33A695B696B6B6BEB7C696BE55BEB6
:10196C0076C6F9D69CE7DDEF9DF7BEF7BEF79EF77E
:10197C00BEF7DEF7BEF79EF7BEF7DEF7DEFFDEFF43
:10198C00DFFFDFFFDFFFDFFFA7AB09BC49BC69BC92
:10199C0069BC69BC89BC68B448AC27AC68AC68ACA1
:1019AC0068AC88ACE9BC2AC54CCDADD58DD5ADD5D0
:1019BC00CDDDACDD8CDD6BD5C9C4E9C4A9C4A9C42B
:1019CC0047BC07B428BCE7B3A7AB87A387A3479B47
:1019DC00679B47932793C682E78A07838672656A5B
:1019EC00A7728772466226620452C349E349E449EE
:1019FC00C541C741A639A539C339C339C539C6391B
:101A0C00A641C541C541C441C54125524552E54990
:101A1C00C6414652E441C339C541E541C339E339B6
:101A2C00E539A639C639C5312642053A0542464242
:101A3C0066426642A642485B885BA85BE963096420
:101A4C000964296C4A6C4A6C6B74AC7CAD7CEE847A
:101A5C00919554AE95B695B675B675B635B614B6B1
:101A6C0035BEB8CE5ADFBCE79DF7BEF7BEF79EF782
:101A7C00BEF7BEF7DFF7BEF7BEF7DEF7DEFFDEFF21
:101A8C00DFFFDFFFDFFFDFFF279BC8AB2ABC8AC469
:101A9C008AC489BCA9BC89BC68B448AC68B468B4B5
:101AAC0088B4A9B4EABC2AC54CCD8CCD8CD5ADD5A7
:101ABC00CDDDCCDDACDD4AD5C9C4C9C4A8C4A9C42C
:101ACC0088C427BC27BC07BCC8ABA7A387A367A344
:101ADC0088A3689B489B078BE682078BC67A667245
:101AEC00A772A772666A46622652C449E549E5495F
:101AFC00C541A6418639A539C439C439C439C5395B
:101B0C00C541A441A441A441C541254A244AC5412B
:101B1C00C64147520442C339E539E541C331E3318B
:101B2C00E539C631C631C431053AE539064246427B
:101B3C00464266428642485B685B875BC8630964C1
:101B4C00296C4A6C4B6C4B6C8C7CAD7CAD7C0E85E3
:101B5C00B29D54AE75B675B655B634B6F3ADF4AD9C
:101B6C0015B676C6F9D67BE79DF7BEF7DEF7BEF75E
:101B7C00BEF7BEF7DEF7BEF7BEF7DEF7DEFFDEFF21
:101B8C00DEFFDFFFDFFFDFFFC69268A3E9B36AC4A5
:101B9C00AAC4A9C4A9C4A8BC67BC68B488B489BCCD
:101BAC00A9BCE9BC0AC5EABC4BCD4BCD8CD5CDDD6F
:101BBC00CCDDACDDACDD4AD5E9C4C8C488C4A9C44D
:101BCC0089C448BC27BC28BCE8B3C7ABA7AB87A368
:101BDC00A8A3689B689B489BC682E782C67A6572FD
:101BEC008672A7728772676A485AC549C549C54942
:101BFC00C541A5418539A539C439C439C439C4395D
:101C0C00C441C339A339A339A6390642E541A539E4
:101C1C00C63968520542A431C639E639C531C431DA
:101C2C00C531C631C631C531E539E53926422642C2
:101C3C00464246428642485B475B6753C863296C01
:101C4C002A6C4A6C4B746B74AD7CAD7CCD7C0F856F
:101C5C00B29D34A654AE54AE34B6F3ADD3ADD3ADC1
:101C6C00F4B515B697C619DF5CE79DF7DEFFDEFF0E
:101C7C00BEF7BEF7BEF79EF7BEF7DEFFDEFFDEFF58
:101C8C00DEFFDFFFDFFFDFFF8582079368A309B468
:101C9C008AC4AACCEACCC9CC88C488BCA8C4C9C4A0
:101CAC00E9C40AC52BC50AC50BC52BC5ACD5EDE5DA
:101CBC00ACDDACDDACDD4AD5E9CCA8C488C488C4A5
:101CCC0088C448C407BC27BC08B4E8B3C8AB87A316
:101CDC0088A3479B88A389A3E68AC682A67A6572E5
:101CEC008672C87AA87287726862E651C549E4495F
:101CFC00E441E341A339A439C539A539C439C441F8
:101D0C00E341C339C239C239A5390642E541A53987
:101D1C00C639484AE5398431A631E739C531A53190
:101D2C00A5318631C631C639E539E5390642264238
:101D3C0026424642A642485B4753675BC863296C00
:101D4C004A6C2A6C4B746C748D7CAD7CAE7C0F85AC
:101D5C00B29D13A634AE34AE13AEB2A571A591A547
:101D6C0092A592AD14BEB7CEDADE5CE7BEF7DEF715
:101D7C00DEF7BEF7BEF7BEF7BEF7DEFFDEFFDEFF17
:101D8C00DEFFDFFFDFFFFFFF457AA68A069387A3FE
:101D9C0008B489C4EAD4C9CC87C4A8C4C8C4C9C40B
:101DAC00C9C40ACD4BCD2BC50AC50AC5ACDDEDE5C2
:101DBC00ACDDACDD8BDD4AD5E9CCA8C4A8CC88C49D
:101DCC0068C447C407BC07BC08BCE8B3E8B387A326
:101DDC0067A3479B88A3A9A3078BA682867A456A2B
:101DEC006672C87AA872A8726862E651E549C5495C
:101DFC00E441E341C239C339A539A531C539E539C7
:101E0C00E539C439C339C339A4390542E441A4398D
:101E1C00C539264AC4398431A531E641C539A431C6
:101E2C0084316531A631C539C539C539063A063A0A
:101E3C00263A463AA64248536753875BE8632A6CB6
:101E4C004A6C4B6C6C746C748D7CAD7CAE7C0F8569
:101E5C00B29D13A613A6F3A5D2A5719D309D309DFE
:101E6C00309D31A5B3B555C6B9D63BE7BDF7DEF706
:101E7C00DEF7DEF7DFF7DEFFDEF7DEFFDEFFDEFF8D
:101E8C00DEFFDEFFDFFFFFFFC4614572A582069314
:101E9C0087A348BCC9D4C8D487CCA8CCC8CCC8C4E8
:101EAC00C8C40ACD4BCD2BCD2ACD2ACDCCDDEDE54A
:101EBC00CCE5CCE58BDD6BDD09D5A8CCC8CC88C4D2
:101ECC0027BC47C427BC07BCE7B3E8B308B487AB4F
:101EDC0067A3479B88A388A32793A582857A446A26
:101EEC00456A877267728872866225520652E64985
:101EFC00C541E341C239C339A5398631A539E53924
:101F0C00E539A639A539A439C339E441C341A3390C
:101F1C00A3390542A33983318431E641A539843193
:101F2C0084318431A539C539C531C539E639063A0C
:101F3C00263A463AA64228536753875BE963296CD5
:101F4C002A6C4B746C746D748D7CAE7CAE7C0F857E
:101F5C00929DF3A5D2A5B19D709D2F95EF94EF9412
:101F6C00EF94EF9C51A5F3B557C6DADE7CEFBEF7C4
:101F7C00DEF7DEFFDEFFDEFFDEF7DEFFDEFFDEFF7D
:101F8C00DEFFDEFFDFFFFFFF2149C4614472C58223
:101F9C00469B28BCC9D4C9D4A7CCC8D409D5E9D48C
:101FAC00E9CC2ACD6BD54BD56BD54BD5CDDDEDE53D
:101FBC00CCE5CDED8BE56BDD4ADDC9CCC9CC67C476
:101FCC0006BC47C448C447C4C7B3E7B308BC87AB17
:101FDC0067A347A368A3689B489BA582A57A457213
:101FEC00256A6672466A87728562455A475A074A5D
:101FFC00E541E341E241C439A639A631C539E53999
:10200C00C639863986318631A439C441A43983391D
:10201C008331C541843184316531A639A53985397F
:10202C0085398539A539A439C531C539063A063AF9
:10203C00263A463A8642074B6853A85BE863296CFC
:10204C002A6C6C746D7C4D748D7CAE7CAE7CEF8494
:10205C009295F3A5B29D5095EE8CAD8CAD8CCE9433
:10206C00AE948E8CEF9451A5B5B577CE3BE79DF72A
:10207C00DEF7DEFFDEFFBEF7DEFFDEFFDEFFDEFF9C
:10208C00DEFFDEFFDFFFFFFFC038C4598672C5825A
:10209C00669B49BCEAD4E9DCA8D4C8D4E9D4E9D419
:1020AC0009CD2AD54AD54ACD6BD58BD5ACDDEDE51E
:1020BC00EDEDCCED8BE56BE52ADD0AD5E9D488CCCA
:1020CC0007BC27BC68C447C4A6AB08BCE8B3A7AB25
:1020DC0087AB87AB88A388A3689BE68AC6826572A8
:1020EC00256A4672266A466AA6622452A341C441F6
:1020FC00E341C139E1398231C6398531053AE339D9
:10210C00C43986318631A531A639A6398539653170
:10211C008531A539A63986314531C739A63985317E
:10212C008431C53983314229C539C53147422742EB
:10213C00E631473AA742074B6853E96309642A6CB6
:10214C006B746C744D748E7C8E7C8E7CAE7CEF8448
:10215C009195B29D71955095AE846C844B844C8452
:10216C004C846C8C8E8CEF9453A516BEFADEBDF7A6
:10217C00DEF7BEF7DFFFBEF7DEFFDEFFDEFFDEFFC2
:10218C00DEFFDEFFDFFFFFFFE130A451656AE67A78
:10219C00879B49BC89CC88CC67CC87CC87CCA8CC16
:1021AC00E9CC2AD54AD56AD56BD56BDD8BDDCCE570
:1021BC00CCE5CCED8BE56BE52ADDE9D4E9D488CC14
:1021CC0027BC27BC68C448C407BC08BC08BCE8B31F
:1021DC00C8B387AB67A387A388A3078BE68A857AE6
:1021EC00256A466A466A6772465A2452497B024AF5
:1021FC00E041C25AE039855284310642802921429D
:10220C0003422229A43183316531C741C739853155
:10221C00A531C639A6316529C631A531A531843120
:10222C0082318131024284528329E539E639E6391B
:10223C00063AE631A84A28532753C85B096C4A6C06
:10224C008C748D7C6D748E7C8E7CAE7CAE7CCF84DD
:10225C00308D519530950F958D842B7CEA730B7CCA
:10226C002B7C0B7C4C848E8C129DD5B5D9D69DF7CE
:10227C00BEF7BDF7DEF7BEF7DEF7DEF7DEFFDEFFFB
:10228C00DEFFDEFFDFFFFFFFC1284239E451A572FC
:10229C006793E8A328B448BC48C427C427C467C4C0
:1022AC00C8CC09D54AD56AD56BD56BD56BD56BDD4A
:1022BC008BE58BE56BDD2ADDE9D4A8CCA9CC88CCE9
:1022CC0047C448C489CC88CC48C428BC08BC08BCCA
:1022DC00E8B387AB67A367A388A34793078B857A7B
:1022EC00256A456A466A877205526D9C77F72252B9
:1022FC00415212E7CEBDB5DEC5418231203A6EC6E1
:10230C0034E7E75A212103428531A63185318429EE
:10231C00C431C431842983294221E331E339E339BF
:10232C00E031203A4FC674E7E85AA331C539E63993
:10233C00073A473A8842E84A274BA85B09644B6C3A
:10234C00AC7CAD7C6D746E746E748E7CAE7CAF7C2C
:10235C00F084308D0F8DEF8C8D840B7CEA730B7CAD
:10236C002B7C0B7C2C7C6D8CD094B4B5D9D6BDF762
:10237C00DEF7BEF7DEF7BEF7BEF7BEF7DEF7DEFF21
:10238C00DEFFDEFFDFFFFFFFC020C1286239245AC9
:10239C00C67A6793C8AB08B408B4E7BB07BC47BCA4
:1023AC00A8C4E9CC2AD54AD58BDD6BD56AD56BDDB3
:1023BC00ACE5ACE56BE52ADDE9D488CC88CC88CCDF
:1023CC0048C468C489CC89CC89CC28BC07BCE7B389
:1023DC00E8B3A7AB87A367A3679B4793078BA67A42
:1023EC00456A456A677287726562687BB0C5645AD4
:1023FC0043524DB52A8C30ADC441C03928A590EF5D
:10240C006CAD454A42318239C5390642C5398329FA
:10241C00E3392442C4318229C231E231023A223AF0
:10242C006029878CF4FF089D25422121C439E539A8
:10243C00C531273A6742295368538853C95B4A6CA4
:10244C008C748D744D744D744D748E7C8E7CAE7CFE
:10245C00F084308DEF8CAD842C7CEA73CA73EA73F4
:10246C00EA73CA73EB7B2C7CAF9493AD98CE7CEF64
:10247C00BDF7BEF7DEF7DEFFBEF7BEF7DEF7DEFF19
:10248C00DEFFDEFFDFFFDFFFE120A018E028A34125
:10249C0045620783889BC9ABA7ABA7ABC7B307B48F
:1024AC0088C40ACD2AD52AD54AD52AD54AD56BDD7A
:1024BC00ACE5ACED6BE54BE50ADDA8CC88CC88CC63
:1024CC0048C448C468C468C488CC48C428BC07B491
:1024DC00E7B3E8B3C8AB669B479B4793078BC682B1
:1024EC006572466A87728772A36A80414039E249F5
:1024FC0081410031203100312029204A2DE708BECE
:10250C00C039E028022900290021012901210021DC
:10251C0040292021E018E018002140290021002149
:10252C006029CFDEA9B5E01881312542C431C5310F
:10253C00073A473A673A673A6953474BA8534A6C8C
:10254C008C746C744D744D748E7CAE7C8E7CAE7CB5
:10255C001085308DAE842B74EB730B74EA73CA73D5
:10256C00CA73CA73EB73EB738F8C73A536C6FADE22
:10257C009CEF9DF7BEF7DEFFDEFFDEF7DEFFDEFF32
:10258C00DEFFDEFFDFFFDFFF2321A010801801310B
:10259C00C349A672488B279368A367A3A7ABE8B37C
:1025AC0069C4EACC2AD52AD52AD52AD52AD54ADD1A
:1025BC006BDD6BE54BDD2ADDEAD488CC68C468C4DE
:1025CC0048C468C489C468C468C468C468C428BCE6
:1025DC0008B429BCE8AB259B269347932793E78245
:1025EC00867A6672877267720173C7AC2694299CCF
:1025FC0029944794A7A44694679C27AD4CEF606B35
:10260C004031497B8C9C27944794288C299468945E
:10261C004694478C69948A9C4894889C6894279427
:10262C00E7A44EEFA7BD839C0342C239C439C53120
:10263C00A531E6312732873A0843E64287534B6C83
:10264C00AC748D746D748E748E7C8E7C8E7CAE7C32
:10265C00EF840F8D8D7C0B6C0B744C7C4C84EB736A
:10266C00CA73EB73EC73EB734E84119DB4B5B9D68E
:10267C009DEFDEF7BEF7BEF7DEFFDEFFDEFFDEFF0F
:10268C00DEFFDEFFDFFFFFFF2221A01060108018AD
:10269C0021312562E87AA6820793C68AE59287A340
:1026AC0049BCA9CCE9CC09D54AD54AD54AD54AD595
:1026BC004ADD2ADD2ADD2ADDC9D468C447C448C4F2
:1026CC0048C489C4A9CCA9CC68C468C489CC69C4E1
:1026DC0028BC29BCE8AB2593E58A26932793278B46
:1026EC00A67A8672A77A6772E18BB0FFB0FF70FF93
:1026FC006FFFCEFF6AF7CDFFAFFF0DEF2CEF805AC7
:10270C0040392EBDB2FFABF7ACFFAEFFAFFF8CFF75
:10271C006BF7ADFFD0FF6FFF8FFF6EF78FFF8FFF53
:10272C006DFF08EF49F7CCFF2FA56129E439C531BE
:10273C00C631273A06322632A63AE642A8536B6CCB
:10274C00AC748D748E7C8E7C6E7C8E7C8E748E7C48
:10275C00CF84CF848D7C4C744C7C6C844C84EA7319
:10276C00AA6BCA73CB73CB73EC7B8F8C129D16BE8A
:10277C005CE7DEF7BEF7BEF7DEFFDEF7DEF7DEFF67
:10278C00DEFFDEFFDFFFFFFFE218A110801040101C
:10279C008020C451A77A867A657AE3710272059318
:1027AC0008B469C4A9C4E9CCE9CCE9CCE8CCC8CC60
:1027BC00C8CCC9CCE9D40ADDC9D468C447C447C461
:1027CC0047BC89C4CACCA9CC88CC88CCA9CC69C458
:1027DC0008BC08B4E8AB2593A482068B2793288BFE
:1027EC00C7828672A77A6772619C4BF7A4C5A5C590
:1027FC00A3C5C3DE42E720C683BD89DEECEE605A7A
:10280C0060412CBDC9E622E744F701CE22CE45F744
:10281C0023E721CEC2C5E3C5C2C528F766DE83C552
:10282C0085E624F720DEE4EE12C6A139E339A431A3
:10283C00063AE63107324732863A0743E95B8B7436
:10284C008C748D74AE7C8E7C8E7C8E7C8E7C8E7C1F
:10285C00AE7CAE7C8D7C6D7CAD848D844C84EB73B6
:10286C00CA73CA6BCB6BCB73CC730D7C2E8432A525
:10287C0099CE7CEFBEF7DEFFDEF7BEF7BEF7DEF7D4
:10288C00DEF7BEF7DFFFFFFF6010A11860108018A5
:10289C0080182129C4410552465AE451A351456A76
:1028AC00689B29B46AC4AACCA9C4C9CCC9CCA8C495
:1028BC00A8C488CCA9CCEAD4A9CC48C428C428C4C0
:1028CC0047C488CCC9D4C9D488D488D4A9D469CCF9
:1028DC0049BCE8B387A32693A482C582278B48936F
:1028EC000783A5728572656AA09CEEEE405A415A28
:1028FC00E04127AD4ED6A0414039A58352F7C262C4
:10290C0060396FBD6594406BA6EF8052E028CEC550
:10291C00EBE6206BC02002314029AED6C89CA01833
:10292C002063ACFF2052888BB4DE8031C239A331D6
:10293C00C439E531263A663AA742074BEA634B6C39
:10294C006C74AD748D74AE748D7C6D7C6E748F7C78
:10295C00AF7C6E7C2D740C6C6D7C4C7C2B7CEA7388
:10296C00AA73896BAA6BAB73CC7BAB73CC7B6F9468
:10297C00B4B51AE7DDFFBDF7BDF7BEF7BEF7DEF75E
:10298C00DEFFDEFFDFFFDFFFA118E22080108010EA
:10299C0080188018A0204231E55183498349C359DE
:1029AC00A582A8A3C7AB28BC68C488C488C4A8CC1B
:1029BC00A9CCA8CCA9CCEAD4A9CC48C427BC27C4A0
:1029CC0027C488CCC9D4C9D488D4A9D4A9D469CCF7
:1029DC0029BCE8B3A8A3479BE68A068B4793489388
:1029EC00078BC67A8572656AE18B12F70773A5624D
:1029FC00A25A889CD2E6E149E149036B93FF078C0C
:102A0C00C0202CB5EAC540846BEFE362E230225261
:102A1C00B0FFCEDE2252C020803190CE6EADC020F1
:102A2C0060526FF7449C0DBDB0BD8031C239C339C3
:102A3C00E539E531E531463AC742274BC95B0A64B3
:102A4C008C74CD7CAD748D748E7C8E7C8E7C8E7CE7
:102A5C006E744E742D6C0C6C6D7C2C7C0B7CCA7360
:102A6C00896B896B8A6B8A6BEC7BCC7BCC7B0D8402
:102A7C00D09C16C63AE79CF7DDF7BDF7BDF7BEF75D
:102A8C00BEF7BEF7DFFFFFFF2329A539E120801831
:102A9C00C020A018C0208339C441423983498249DF
:102AAC00446A4793469BA7AB48BC68C488C489CC8E
:102ABC00A9CC88CC68C489CC89CC48C407BC27C4B1
:102ACC0027C488CCC9D4C9D488D4A9D4A9D489CCD6
:102ADC0029BCE8B3A8AB679B47932793489B689B9B
:102AEC00278BE6828572446A848316F7886A265A95
:102AFC00645A6A94F5E6E241E241415233EF088CA4
:102B0C0080394573B2F7EFFFEDBD4131864100319D
:102B1C00A37B91F770D66352E020B0B571B5012953
:102B2C004031EECD53FF33F769734029A239A331FD
:102B3C00C531E6390632263AC742284BA95BC95B38
:102B4C006B6CCD7CAC748C748E7C8E7C8E7C8E7419
:102B5C006E744E6C2D744D744C7C0B7CCA738973E3
:102B6C008973897389738A73CB7BAB73AB73AB73C8
:102B7C000D8432A597D65BE7DDF7DDF7BDF7BEF721
:102B8C00BEF7DEFFDFFFFFFF4329E5412229801856
:102B9C00E020E020E1202231A4414239423982492F
:102BAC00656A068B068B469308BC49BC69C469C42C
:102BBC0069CC68C468C468CC89CC48C427C428C410
:102BCC0048CC89D4CADCEADC88D4A9D4A9D469CC91
:102BDC0029BCE8B3A8A3679B679B479B489B689B52
:102BEC006893488BC68265728162277B265A8862FD
:102BFC00A66205630663E34145520242266B034A13
:102C0C00A341C241699449A5865A64396539A241E8
:102C1C004031A494D2FF278C00218552A23922295D
:102C2C00E020445210CE889C82314129A339843152
:102C3C00A431273A273A4632C7424853A953A85BD6
:102C4C002A64AC74AC74AC748E748E74AE74AF7441
:102C5C008E744E744D742D74EB73CA738973686BD8
:102C6C00697369738A7B8A7B8A73AA73AA73AA7342
:102C7C00EC7BCF9415BEF9DEBCF7BDF7DDF7DEF7C4
:102C8C00DEF7DEFFFEFFFFFFA11822290121C02085
:102C9C00E120E120E020A01843312231E130A349AA
:102CAC00456285720683268BA7AB09BC49BC28BC40
:102CBC0048C448C468CC89CC69CC48CC28C428C446
:102CCC0068CCA9D4CADCEADC89D489D489CC69CC97
:102CDC0049BCE9B388A3479B479B27932793489B01
:102CEC00699B899B4893E782C2724262E772455A9C
:102CFC00C662A45A6452865A054A45528339064A1A
:102D0C00E749E6412129E13962316231A23980314A
:102D1C00A052C8BD90F7C05AA039444A234A034276
:102D2C002229E128C020403101218331A439A53169
:102D3C00C531273A273A2632C7424853685387533E
:102D4C0009648B74AC74AC74AE74AE74AE74AF7442
:102D5C008E744D6C0C6CCB6BAA6B896B686B486B6F
:102D6C00487348736973897B8973CA7BEB7BCA7B15
:102D7C00EB7B8E8CB3B5D8D6BCF7DDF7DDFFDDF77A
:102D8C00BDF7DEF7DEFFFEFFC118A018C018E1206A
:102D9C00E120A018E120A018C120E120A020623978
:102DAC00E451E351A6722783479BC8AB09B408BC16
:102DBC0008BC28C448C468CC68CC48CC27CC28CCE8
:102DCC0069D4AADCCADCEADC89D489CC69CC69C4B4
:102DDC0029BCE9B388A3479B68A3279B0793079358
:102DEC00489B899B699B078BE47AE67A456266620D
:102DFC002873E662276B65526652A75A885A285286
:102E0C00E749A539054A95D62C8C6029A03906844A
:102E1C0031E7F2FF28A500210EA5F5DED3D6CD9C17
:102E2C00A018232901212029422984316429C63183
:102E3C00E7390732E6312632C842284B0643264B87
:102E4C0009648B74AB748B74AE74AE74AE74AE7464
:102E5C006E742D6CEC63CB6B8A6B896B6973486BEE
:102E6C00287328734873687BA973EA7BEA7BCA7B57
:102E7C00CA7B4D8492ADD7D6DCF7FDFFFDFFDDF7A5
:102E8C00BDF7DEF7FEFFFFFF84312229E120C020D1
:102E9C00A0184010A018C0188018A018A01802295B
:102EAC0042396241255AC672E692479BA8AB09BCCF
:102EBC0029BC07BC07BC28C468CC68D427CC27CC59
:102ECC0089D4A9D4A9DCCADC68CC69CC49C429C48E
:102EDC0009BCC8B388A3479B68A3479B279B079350
:102EEC002793689B489BE78A8672C77A466A676213
:102EFC0067622973076BA55A655245524652475271
:102F0C00264AC3410342B4D64B8C2021624A75EF4A
:102F1C004FCEE25A40290021486B8C94AB94686BDD
:102F2C00E11865310421C118222143294329A53117
:102F3C00E631E631C6292632A742084BA63A0643AB
:102F4C0009646B6C8B74AC748E74AE74AE748E74CA
:102F5C002D6CEC63EC6BEC6BAA6BAA738A738973A4
:102F6C0068736873687B687BA973CA7BCA7BCA7BEE
:102F7C00EA7B4C8450A576CE9BEFDCF7FDFFDDF7AA
:102F8C00BDF7DEFFFFFFFFFFC43984392229A018EB
:102F9C00A0186010E1202229601080108018C11840
:102FAC0001294239C349455A8582C68A689B0AB4AD
:102FBC004ABC08BCE7BB27C468CC68D448CC27CC37
:102FCC0089D4A9D488D4C9DC68CC48CC28C408BC22
:102FDC00E8B3A8AB88A367A3479B47A368A348A300
:102FEC00489B689B489B078B877AA87A8772676A8D
:102FFC00A76AE7722773E56AA45A6452A65A665206
:10300C00865A444AC139835223426129AB7BCD9CF9
:10301C008031613184394431422920214021622997
:10302C002429E4202421E218E11843216429A5294C
:10303C00A529C629E6314732463AC742A63A074384
:10304C00CA632A6C8C74CD7C8E7CAE7CAE7C4D7449
:10305C00CB638A5BAB63EC6BCB73CB73CA7BCA7BE6
:10306C00AA7BA97BA97BA97BA97BC97BA97BCA7BF2
:10307C000B844C84EF9CB3B539E77BEFDCF7DDF7C1
:10308C00BDF7DEFFDEFFDEFF83390129A0186010DB
:10309C008018E120A4394331A0108010A118C11868
:1030AC00C12002298439054A4572A67AE68A479BD3
:1030BC00C8ABE8B308BC48C489CC48CC48CC47CC96
:1030CC00A9D4C9DC88D4A8D469CC69CC48C4E7B3EA
:1030DC0087AB87A388A367A368A3279B479B48A3B9
:1030EC00489B68A368A30793C78AA682A67AA67A88
:1030FC00A672E7722673E56A8462655A2552876266
:10310C00665A044A044AA239C439A5316431833160
:10311C00A339C53987394531833181314229252974
:10312C002629442123212219021922214321642911
:10313C00A529E6310632273A673A663A6632E74203
:10314C008953CA5B4B6CAD7C8E7C6E7C6E7C2C6C1C
:10315C008A5B6A5BCB63EC6BEB73CB7BCB7BCA7B05
:10316C000B840A84E983C97BA97BA97BA97BA97BF6
:10317C00EA7B4C84CF9451A5B7D6BCF7BCF7BDF70E
:10318C00DEFF9EF7DFFFFFFF63310229C0188018B6
:10319C00A0182229E541E541C118A118C118C11890
:1031AC008010A11823298439045A8672C67AE682C3
:1031BC002693469BA7AB49C469CC28C427C427C413
:1031CC0068CCC9DCA8D4A8D469CC69CC49C4E8B310
:1031DC0087AB67A367A367A368A3479B279B279B22
:1031EC00279B68A368A3279B0693058B058B0583F8
:1031FC00C57AE67A067BC472846A6562465A88622E
:10320C00675A054AE549C441E641C639A6398531B4
:10321C00A539A63966314429A331823143292529A0
:10322C0026214421412140192221222143216321BD
:10323C008429C5310632273A4632873A873AE84222
:10324C004853895B2C6CAE7C8E7C8E7C8E7C2D7472
:10325C00CB63CB63CB6BCB6BAB6BAB73CB7BEB7BBA
:10326C000B840A840A84E97BA97BA97BA97BA97BB3
:10327C00CA7B0B848E8C109D76C69BEFBCF7BDF77A
:10328C00DEFFBEF7DFFFDFFF63312229A0188018B5
:10329C00C020E1288439A4390221C118E118C118D1
:1032AC0060106010C11802296241055A866AA57225
:1032BC00A57AE58287A349BC6ACC48C448C427C414
:1032CC0068CCE9DCE9DCA8D488CC68CC69CC28BC17
:1032DC00A7AB66A367A367A368A347A3479B279BDA
:1032EC00479B68A368A3489B279B0693269326932A
:1032FC00E582E6820683C57AA5728672666A676283
:10330C00465AE551E549E549E641C639C539C43166
:10331C00C431C531A5316329C331A2316329442994
:10332C00442943214119401902210119021922197A
:10333C0043218429E53106320632873A8742C74257
:10334C00084B69532C6CAE7C6E7CAE848E7C4D74B9
:10335C000C6CEB6B8A63495B8B6B6A6B8B73CB73FB
:10336C00CA7B0A7C2A840A7CA97BA97BA97BA97BC2
:10337C00A973EA7B4D84CF94D4B539E79CEFBDF7A4
:10338C00DEFFBEF7DFFFDFFF62312129A018A01896
:10339C00E120C120E12002216329E118C118E118C4
:1033AC00801040088110A2180131C449465A866A1F
:1033BC008572C57A479309B449BC29BC28C428C472
:1033CC0068C4C9D4E9D4A7CC88CC68CC69CC49BC36
:1033DC00C7B387A367A3479B47A367A347A347A389
:1033EC0068A388A3689B68A3089B0793289B2793D3
:1033FC00E68A068B078BC682C67AA77A8672666ABD
:10340C004662044AE341244AC641C539C339E3390B
:10341C00E431C431C531C431C431A33182296229AC
:10342C004321242122190119E118E118E118E218AD
:10343C0022194321A429C52906326742673A873AE3
:10344C00C74249530C646D742C748E848D7C4C74FF
:10345C002C740C6C6A5BE852095BE85A2963496B63
:10346C00696BCA7B0A84E97BA983A97BA97BA97BAD
:10347C008973CA732C84AE9472A5D8D69CEFBDF711
:10348C00DEF7DEFFFFFFDFFF21290121A018E1207D
:10349C00E120A020A020C120A439E120A010E11837
:1034AC00A110400840086110A11884392652665AB0
:1034BC0065628572E682A8A3E9ABE8B3E8B307BC02
:1034CC0027BCA8CCC9D487C468CC48C448C449C458
:1034DC00E8B3A7AB87A3479B479B479B479B47A357
:1034EC0068A388A388A3A9A348A3289B489B489BAF
:1034FC00279327930793C682A782A782A67A867200
:10350C0066620452C341044AE641E441E339E231C4
:10351C00E331C431C531C531A431A43183316229C1
:10352C00432924210419E318E118E118E118E118E2
:10353C000219221963218429E631473A673A663A1F
:10354C00A742084BEB636C740B6C8D7CAE7C6D747A
:10355C004C740C6C8A5B2953C84AA852E95A4A6BC2
:10356C00696BCA7B0A7CC973A983A97BA97BA97BDC
:10357C008973CA732C84CE94309D97CE9BEFDDF764
:10358C00DEF7DEFFFFFFFFFF63316331222942319B
:10359C00C120A020C120022983310121A010C1101B
:1035AC00A11040080000000040080221C539054A5E
:1035BC002552045AA672899BA9A3C9ABC8ABE7B321
:1035CC0007B467C4C8CCA8C468CC47C448C448C4B2
:1035DC0028B4E8B3A7AB479B469B269B279B479BEE
:1035EC00479B68A3A9A3C9AB88A347A368A388A3D7
:1035FC00479B469B279BC78AA682867AA77AA77A7F
:10360C00A772665AE449E341E649E541E339E331FF
:10361C00C331C431C529C531A531A531A4316331BC
:10362C00432924290421C318E218E218E218C1180E
:10363C00E118E21822194321A429263A473A663A9E
:10364C00663AE742AA5B4C6C0B6C8D7CAE7C6D745D
:10365C004C6C0C6CCB636A63E952C952E95A09632E
:10366C00496BAA730A7CC97BA983A87B897BA97B3C
:10367C00A973C9732B84AE94109D56C67AE7BCF718
:10368C00BDF7DEFFDFFFDFFF264A054284398339B1
:10369C00C120C1200129222922292229C1188010E8
:1036AC0080104008000000002000A108232184396C
:1036BC00C441C4514562288B689BA9A3A8ABC7AB76
:1036CC0027B447BCA8C4C8CC68CC68CC88CC69C427
:1036DC0049BC29BCE8AB87A367A3469B479B67A360
:1036EC00479B679BA9A3C9AB87A367A388A3A8AB78
:1036FC0086A366A3479B0793A78A6582A67AE77A77
:10370C00C872A762244A0342E549C541C439C43191
:10371C00C431C529C531C531C531A53186316531B5
:10372C004429432922210119E218E218E218C11890
:10373C00C110C110E21802194321C52906324632C4
:10374C00663AA63A68530A642B6C8D74AD7C8C7403
:10375C002C6C4C6C4D740D74AC6BAC738C734B6BE0
:10376C004A6B8A73AA7BA97B8883887B887BA87B1E
:10377C00A873A9730B7C8D8CEF9414BE39DF9CEF6E
:10378C00BDF7DEFFDEFFFFFF054AA3392229022920
:10379C0080188018C120C018C0184229012180103F
:1037AC00801060080000200820004000A110222199
:1037BC0063396241A3516572C6824793469BA7AB9E
:1037CC0008B427B488C4C8CC88CC88CCA9CC89CC04
:1037DC0069C46ABC09B4A8AB87A3479B88A388A318
:1037EC00479B679BA9A3A9A386A367A3A8ABC8AB58
:1037FC0086A386A388A349A308938582A582E67A2B
:10380C00E772C76A6552234AE549C541C539C539CE
:10381C00E531E531C529E431C431A5318631463174
:10382C004429612940212021032103210221E2188E
:10383C00C110C110E110021922198421C4290532CA
:10384C00663AA63A484BA95B2B6C4C6C8D748C7405
:10385C004C6C8D7CCF84D08CD194F29CD19C6F9489
:10386C000D8CCB7BA97B8973887B887B887BA87B21
:10387C008873A973EA7B4C84CE94D3B519DF9CEF83
:10388C00BDF7DEFFFEFFFFFF4331C120A018A118DA
:10389C00601060106110400820088118A218611097
:1038AC0061086108400840002100210020008110BF
:1038BC00032943316339C449255AC772488BE9A39C
:1038CC0029B408B468C4A9D4A8CCA9CCA9D4A9D4C7
:1038DC0089CC68CC48C4E7B3C6AB86A386A386A3C1
:1038EC0087A367A367A388AB67AB87AB87AB88A3BA
:1038FC0088A388A388A3A8AB269BC58AA582C5826A
:10390C00C67AA67265620452E541E541C539C539EE
:10391C00C539C539C539C539A531A4318331833190
:10392C004329222902292329022123292229E220A1
:10393C00E118E218E218C11022214321A429C4295C
:10394C002532863AC74249534B6C0A648C746C74AA
:10395C004D74AF84F18C53A5329DF5BD77CE15C651
:10396C0031AD8E946A734973466B887BA87BA87BB8
:10397C00C97BA973C9734B848D8CB1ADF7D69AEF03
:10398C009BEFDDF7FEFFDEFF0129A0208018A118B8
:10399C0081186110401020082008611081106110FE
:1039AC006008600840004000000000000000200893
:1039BC008110A118E2286339C4496562077BC99B51
:1039CC00E9AB08B468C489CCA8CC88CCA9CCA9D460
:1039DC0089D489CC89CC48C4E7B3C7ABA7ABC7ABF8
:1039EC00A8ABA8AB88ABA8AB87AB87AB87A3A8A3C6
:1039FC00A8A3A8A3A8ABC9AB67A3069BE68AE682DB
:103A0C00E67AC6728662245A0542E541C539C53943
:103A1C00C539C539C539C539A431842983298331C0
:103A2C006329232923294329232943294329232192
:103A3C002321432923210219E21822198321A429C5
:103A4C000532463AA742295309640A648C744C74B3
:103A5C004D74CF8C529D16BED5B578CE1AE73AEF81
:103A6C0077D611AD8A734973466BA87BA87BA87B6C
:103A7C00C97BA973C9730B7C2B8471A5F7D69BEFFB
:103A8C00BCF7DDF7FEFFDEFF4231E128A120A118D3
:103A9C00601040082008000020082008400840085A
:103AAC0040084008410840000000000000000000F1
:103ABC00200840088018C1206239C349856A2783D1
:103ACC006793C7A348BC68C4A8CCA8CCC9D4C9D434
:103ADC00A9D4A9D4A9D468CC28BC07B4E8B3E8B35A
:103AEC00E8B3C8B3C8B3C8B3C8ABA7AB87A3A8A384
:103AFC00A8A388A387A388A368A368A32793078B8D
:103B0C000783E77AA66A655A264AE541C539C5395D
:103B1C00C539C539C539C539A431A431833184318E
:103B2C0064316331643164316329842984296429C3
:103B3C008431843164292221E11802196321832103
:103B4C00C4290532663A2953C95B2A6C8D744C74AE
:103B5C006D7CF08C93A598CE98CE1ADF7BEFFDFF91
:103B6C007BF7B3BD8A73086B466BA87BC97BA873C4
:103B7C00C97BC973A973EA73CA730F9DB6CEBBEF29
:103B8C00BCF7DDF7DEFFDEFF2229E128C12080181B
:103B9C0060104008400840086110200840084008A8
:103BAC0020084008610840000000000000000000F0
:103BBC000000200040086010E1204131C3496462DC
:103BCC00C472669369BC89C4C8CCC8CCE9D4E9D4A6
:103BDC00C9D4C9D4A9D468C448C428BC08BC29BC5D
:103BEC0029BC09BCE9BB09BCE8B3C8ABA7A3A8A313
:103BFC00A8A3679B479B679B679B689B4793078B17
:103C0C002883087BA66A655A264A0542C539C539F8
:103C1C00C539C539C531C531A431A4318431A4317C
:103C2C00843184318431A539A431A431A431843157
:103C3C0084318431642943212321221943214319DE
:103C4C008321C429463AE84AC95B0B6C4C744C740A
:103C5C00AF843195B4AD98CED9D63BE75BEFFDFF81
:103C6C00BBF7F4C5AA7B0863476BC97BC97BA873F8
:103C7C00A973A973896BA973A96BCE9475C69AEFB6
:103C8C00DCF7DDF7DEF7FEFFE1280129C120801803
:103C9C0040082008200840086110400840086008CF
:103CAC0040084008610820000000000000000000EF
:103CBC002000400860084008A010E0206139E2496B
:103CCC00226205836AB4EBCCE8CCE9D409D5E9D4FB
:103CDC00C9D4C9D4A9D469CC48C428C428BC29BC2B
:103CEC0029C429C429C429C408B4C8ABA7A3A8A350
:103CFC00A8A3679B47934793479B689B2793E682B0
:103D0C000783E77A86622452464A0542E539C5396B
:103D1C00C531A531A531A531A43184318431A4310B
:103D2C00A431A431A539A539A431A431843184310D
:103D3C0064296429642944294321432143212219FC
:103D4C0043218321E5318742A95BEA630B6C4D74F7
:103D5C00F08C319594A598CEFADE3BE75BEFBDFF76
:103D6C003AEF72B5AB7B4973476BC97BC97B8873E0
:103D7C00886B896B896BA973896B8D8C14BE7AE700
:103D8C00DCF7DDF7DEF7FFFF42314231C120601076
:103D9C0040084008400861104008200840084008CE
:103DAC004008400840000000200000000000000017
:103DBC0020008108A10860086008C01821298241F0
:103DCC00E251C47A49AC0CC509D509D5E9D4E9D47A
:103DDC00A9D4C9D4A9D469CC48C448C428C428BC23
:103DEC0029C429C449C429C429B4E8ABC8ABC8A3A5
:103DFC00A89B67934793279307932793E68AA67A02
:103E0C00A672A66A66622552264A0542E539C5396C
:103E1C00A531843184318431A431843184318431AD
:103E2C00A431A431A539A5394329432123212321C8
:103E3C0002210221032123214321232123212219A1
:103E4C00231963218429263A4853CA63EB6B4D7CB2
:103E5C00F08C319DB4ADB9D61BDF5CE77CEF9CF7E1
:103E6C0057CEB09CAB7B8A73676BC97BC97B88735D
:103E7C00886B896B896BA973896B4D84D3B559E7B2
:103E8C00DCF7DDF7DEFFFFFF62392231A0184010AE
:103E9C008010C218C218C21860106110401020089F
:103EAC002008400820000000200000000000000056
:103EBC002000A208C21061084000A010E02041318F
:103ECC00A1416362C893ABB4E9D4C9CCC9D4C9D4F9
:103EDC00A9D4A9DCA9DC69CC49CC49C448C428C400
:103EEC0029C429C429C429C429B409B4E8ABA89BA2
:103EFC0067934793278BE68AE68AC682C682857AC1
:103F0C00656A6562455A255205420542E539C5394F
:103F1C00A431842964298429A431A43183318329CF
:103F2C006331632943292329C118C118A110A11099
:103F3C00811081108110A110C210C210C218C110C2
:103F4C00E11022196321E531084BAB63EC6B4D7C1E
:103F5C00F08C529D16BED9D61BDF7CEF7DF73BEF64
:103F6C00B4B5D09C6E94CC7B8873EA7BC97B887388
:103F7C00896B696B896BA973896B2C7CB2AD39E742
:103F8C00DDFFDDF7DEF7FFFF62394131A018A01825
:103F9C0002212329C118600803210321A21840081B
:103FAC002008400820002000000000002000000035
:103FBC0020008208A210400040008008A0100021C0
:103FCC004139E25126832AA488C468C489CCA9D477
:103FDC00A9DCCADCAADC89D449CC49CC49C449C483
:103FEC0049C449C429C428BC09B4E9ABA8A3679344
:103FFC00278B278B078BE682C682C682E782A67A3E
:10400C00456A245A255AE4510542E541E539C4393B
:10401C0084316429632964298431833163294329D8
:10402C0022210221E118A118A11080108010600833
:10403C00600820002000200020004000600840089C
:10404C006008C1102321C531E952AB63EC734E7C7F
:10405C00F09493AD57C6B9D6FBDE7DEF7DEFB9DE9C
:10406C0053AD94B5B4BD8E94A973EA7BA973896BD7
:10407C00896B686B486B896B696B0B7C92AD39E70C
:10408C00FDFFBDF7BDF7FEFFE449623922318339EC
:10409C00A431C118A1104008E220853144318110AF
:1040AC00400840084108200000000000200840089B
:1040BC002000410861088108610081088010A01867
:1040CC00213161414462688B28BC69C489CC69CCBC
:1040DC0069D4AADCAADC69D448CC48C448C449C415
:1040EC0049C449BC28BC28BCE9B3A8A388A34793FE
:1040FC00068B078BC682A682867A8682867A867221
:10410C00456A2562E451C449E441E539C439A43116
:10411C0084316429632964296329432922210121DB
:10412C00E118A118A018A11880108010A1108010FF
:10413C0060086008200020004000200020002000C3
:10414C00200060082321C639E9528B63CC6B6E8446
:10415C00D09493AD57C6D9D63BE73CE79AD654AD2D
:10416C00B5BD56CE56CE10A5EA7B0A84686B486B5B
:10417C00686B4863696B8973696B0C7C72AD39E74A
:10418C00FDFFBDF7DEFFFFFF865A6239665A4652C5
:10419C008331022180108010A1102329643123293E
:1041AC00A11040082000200000000000200840085A
:1041BC004008200041088208820881108110801874
:1041CC00C0202131C349A66AA7AB08B449C449C46D
:1041DC0049CC8AD48AD449CC48C449C469C469C47A
:1041EC0069C449BC28BC08B4A8AB479B2793E68A92
:1041FC00C682E782A67A867A657245724572456AEE
:10420C002562055AE451C449C439C439A439A431CE
:10421C00843163294329222122210221E118C0186B
:10422C00C118C118C118C118E118C118C118A110C2
:10423C0080108110400860084008200020002000F9
:10424C0020006008E2188429A84A2A5B6B630D7C65
:10425C00D094B4AD77C6B9D67DEF59CE95B534A50B
:10426C0017C6B9DEB8D631A5EA7BCA7B486B486B5A
:10427C00696B696B696B686B496BEB7B71AD39E78B
:10428C00DCFFBDF7DDFFFEFF655AC349C86AC441B8
:10429C00E1202229C118A11860106010C118032157
:1042AC00E2186110400820000000000000004008E7
:1042BC004108000000008210821061086008601044
:1042CC008018E1286239E451C582479BE9B32ABCC6
:1042DC004ACC8BCC8AD48AD448C449C469C469C436
:1042EC0049BC29B4E8B3C7AB47A30693E68AA582B9
:1042FC00A67AE782A67A66722572056A256A256A0D
:10430C000562055AE451E451C439C439A4318431ED
:10431C00643143290221E220E120C118C018C018E1
:10432C00C118E120E120E1200221C118C118A11817
:10433C008110A1106108610860084008400040002D
:10434C0020004008A11002218429A94A8C6B0D7C05
:10435C00F094B3AD36C637C637C655AD75B5F7BD97
:10436C0099D61AE73AE7B3B5CA7B2763C65A0763EF
:10437C00486B8973486B2863486BEB7B51AD18DF36
:10438C00DCF7BCF7DDFFFEFF245A86622552E028DD
:10439C00C02063316331C118601020086010C1184F
:1043AC00C118A110610820000000200000002008A6
:1043BC0041080000000062106108610840082008F4
:1043CC002008801802294239A2598572689B0AB4C8
:1043DC004BBC6BC48ACC8ACC49C469C469BC49BC8B
:1043EC0028B4C8AB87A366A3069BE692C68A857AD7
:1043FC00657AC77AA772456A256A056205622562E5
:10440C002562055A05522552E439C4398431633189
:10441C00432923290221E120E120E120E120E120B0
:10442C00E120012102210221E120C118C118A118AB
:10443C00A118A118811061106008400840004008C4
:10444C00400840088108C2102421684A4B63CC7391
:10445C00B09472ADB4B512A5508C14A57ACEFBDE17
:10446C001BE77BEF9BF755C64C8CE762A65A07639C
:10447C0069738973486B486B486B0B8451ADF8DEDC
:10448C00BBF7DCF7FEFFFEFF4562245A4139E028FA
:10449C00223102294329C0184008A11823292221BE
:1044AC00C118A11081082000200040082000000045
:1044BC00400820080000410861086108400800001D
:1044CC00000020088118A1200039C351C772AA9B93
:1044DC002BAC4ABC4ABC49BC48BC48BC49BC28B4FF
:1044EC0008ACA7A3679B2693E692C68AA682657A38
:1044FC00657286726672456A466A0562E55905629E
:10450C00055AE451E549054AE541C441A4396331F2
:10451C0023290221E220E220022902292229222930
:10452C000229022102210229E120C120C120C11847
:10453C00A118C1188110811061084008400040008A
:10454C0040004008600881102421E739C9528B6B68
:10455C00AF8CF09C9094AD739194F7BD3CE73DEF1C
:10456C005CEFBDF7BCF7B7D60FA5286BA65A286B26
:10457C0069734973286B486B69732C8471ADF8DED1
:10458C00BBF7DCF7FEFFFDFFA66A8249213901313A
:10459C000129E1200129A018601002216331232197
:1045AC00C118C218A1104000410061084008000069
:1045BC0040084008200820084108610841082000F4
:1045CC000000200040108118C0202131E4510773F5
:1045DC00CA9B2AAC49B449B428B428B448B429B409
:1045EC00E8ABA8A3479B2693E692A682A6826572A7
:1045FC00456A666A666A2562466A0562E559E55946
:10460C00E451C449C441E4410542E541C439843113
:10461C0043312329232922292229222942294229CB
:10462C0022292229222922290229E120E120C1184C
:10463C00A118A11881108110811060084008400059
:10464C002000200040004008C210A531684A2A63AF
:10465C00AB73AB73ED7B2F8458C63CE79EF77EF7AC
:10466C00DEFFDDFF9BF7F8DEB1BD897BC662286BF0
:10467C00486BE762E762286B89736D94D3BD18E7CA
:10468C00BBF7DCF7FDFFDDF7077B045AA2492139A4
:10469C000131223142312229E1200221C118A0101E
:1046AC00C118E218A1104008400041004000200051
:1046BC00200040082008000020004108410820008C
:1046CC0020002000200861108010C01842290452DC
:1046DC00E672678BE89B28AC48B448B428B408ACA5
:1046EC00C8A3679B279B0693C68A8582857A6572C9
:1046FC00466A666A46622562255A055AE451C449DF
:10470C00A349A341A339A339E441C441C439A43911
:10471C008439843964314331432942314331433143
:10472C004229222923294329233102290229E22063
:10473C00C220C218A110A1108110610840082000ED
:10474C002000000000002000610885290642264256
:10475C0046422963F19C57C63CE79EF79EF7BEF78D
:10476C00DEFFBDF77BEF39E754D64C94E762286B3C
:10477C00286BC7620763486B8973AE9C34C659EFCC
:10478C00BBF7BCF7FDFFDDF74883C772C351413956
:10479C008239223142316331633122298010600821
:1047AC00A010A010400000002000200020000000FD
:1047BC00000020002008000000004108200000003C
:1047CC00200000000000200060006008C01841318B
:1047DC00C24963622583C79B89B468B428ACC7A35C
:1047EC00679B26930693E692C68A457A4572456A7C
:1047FC00456A4662255A055AC451C451A34983419E
:10480C00824183398231623183318339A439A439AD
:10481C00C541A53984396431633143314331423167
:10482C004231433143314331433143314331232905
:10483C0003290221C218C218610860084008200030
:10484C002000000000000000200024216429843195
:10485C0046424E8415C61AE75CEF5DEF3DE77DEFEF
:10486C009DF79CF77BEF39E7F7E6EFA4076BE76260
:10487C00E76AA65A076B486B8973EF9C75CE9AF75B
:10488C00BBF7BCF7FDFFDDF7EA9B23626049614192
:10489C00045242316231A43126426329E218E218F3
:1048AC00E120A018200820080000000000000000F3
:1048BC00000000000000200020002000200000006C
:1048CC000000000000000000200020006008A11083
:1048DC004221C331444AC6622A9C6BACE9A3889B33
:1048EC0027932793278BE68AC7824572256A256A08
:1048FC0025622662065AC449A449A3418231423139
:10490C004229422962296229633963396331843926
:10491C00A439A439833983396331833163316331E9
:10492C0063316331633183398439633963314331A2
:10493C004229222102210221A1106008200020001E
:10494C0000000000000000002000A21064290642B4
:10495C00AC7B73ADF6C5DADEFADE3CE77DEF3CE707
:10496C00FADE5AE77AEF79EFD4EE6FBD6873C65A68
:10497C00A65286528652086B8A7B10A5F7DEDBF7AF
:10498C00DCF7BCF7BDFFDEFFACB4A4720039C2513A
:10499C00655A254AA439064A84310221C118A1104E
:1049AC00C118A1186010A018410821002000200097
:1049BC00200000000000200000000000000020008B
:1049CC00200020002000200000002000400860088B
:1049DC00C0104121A2392452277BA8936893689B6D
:1049EC0027932793E68AC682C78265724572256A29
:1049FC0005622662055AE549A341633942292129FA
:104A0C000121012122216329633163316331633137
:104A1C0063316331633143318331A4398439633178
:104A2C0063316331633163316331633163314331FA
:104A3C004229222922212221C1186008400040006D
:104A4C00000000000000000000008108C639C95AAF
:104A5C00CD7B7094909474ADD6B538C6DAD6FADEA8
:104A6C00FADE3AE75AE759E7F5EE12CEA97BA55ADA
:104A7C00444A454A254A875A6A73F0A418DFFBF763
:104A8C00DCF7BCF7DDFFFEFFF1DD6BAC6362C251FE
:104A9C002352865AE441A439C1188010801080102A
:104AAC00600860086008A110821041080000000036
:104ABC004008610881108110200020002000200097
:104ACC0020002000200020000000200040084000B2
:104ADC006008C018202982416462067B068B4893CB
:104AEC0027930793E78AE78AC782867A6672256AD4
:104AFC00055A055AE551C449A3416331422921297C
:104B0C000121E1202221643163318439A4398339B4
:104B1C0043314331433142318331A439A4396331B8
:104B2C00633163316331633163396339433142310A
:104B3C0042314229432943290221A110600840082F
:104B4C002000000000000000000040004429274223
:104B5C008852E95A6C73919413A595AD38C6B9CEA9
:104B6C00FAD619DF39E759E736F794DEA97B244AE0
:104B7C00A239E341044A665A497310A539E7FCF798
:104B8C00BCEFBCF7DDFFDEFFD3F672E6099C425AA0
:104B9C00888307736131A02080108010A1186110E8
:104BAC002008200020004008610820002000410857
:104BBC00A210C318C318C210811061084008400825
:104BCC0020002000200000000000000040004008F1
:104BDC0060088010C0184131E351E67A078B2893A6
:104BEC002793078BE78A078BC782A77AA77A466A2F
:104BFC00055A0552C449A441A439833163290221C1
:104C0C00E118C1180221232943318439A43984398C
:104C1C0043314231423122294331833963314231AC
:104C2C0043318439843984396339633943314231AE
:104C3C0043316331633163314329E11880104008FB
:104C4C002000000000000000000020000319A53126
:104C5C00E639684A4C6B708C54A5D6B538C6B9D6B3
:104C6C001ADF3AE77AEF9AEF36F733D6076BC23989
:104C7C008231A341E5498762297310AD39E7DBF72F
:104C8C00BBEFDDF7DDFFDEFFD3EE35FF6AA4099441
:104C9C0012D62773C020A020A020A118C2208110FA
:104CAC004008200000004000610820004108A210CC
:104CBC0003210321A210410881106108400841081A
:104CCC00610841082000000000000000200061087D
:104CDC006008400860100029A249E77A488B2893A5
:104CEC00E78AE78AE78AE78AE88AE882C77A666A07
:104CFC00255A0552C441C441833983312221A01065
:104D0C006008601081108110C12022298431633128
:104D1C004229222922290229222963316331423175
:104D2C006331A439A43984394339643984418441C9
:104D3C00633963396339633963310221A11840083F
:104D4C00000000000000000000000000C2108531CF
:104D5C00064288526C6B508C33A5D6B517BEB9D6AB
:104D6C003ADF3AE77AEF79EF16F770BD6452A23961
:104D7C00A339A341E4498762297311AD18E7BBF746
:104D8C00BBEFDDF7DEFFDEFF35FF56FF0DB5F0CDD7
:104D9C002EBDC14940392139C028A02081184008B6
:104DAC002000200020004000610820002000610845
:104DBC00A2108210400800002000000020006108B2
:104DCC008210821041082000210000004000610880
:104DDC00600820004008C0208241E87A499328935B
:104DEC00078B078BE78AE78A088BE88AC77A456ABC
:104DFC00255A0552E4490542A3394229C010200026
:104E0C0000000000000800008010E12043296331FD
:104E1C00422942292229222942316331633142310C
:104E2C0063318339633943314339A441E551E54951
:104E3C00C449A441C449E44963390229A118400872
:104E4C000000000021000100210000008110A531AC
:104E5C000742474A4B6B2F84B194B5B537BED9D6B0
:104E6C005AE77AEF79EF38E7D6EE6C9CE349A23932
:104E7C00C341A341E551A86A2A7BF0AC19E7BBF703
:104E8C00BCEFFDF7FEFFDEFF97FF76FF72DED0CDA5
:104E9C0062628041E672C2490131C128A1186010DA
:104EAC0020082000200040004108200000000000E5
:104EBC00200020002000000000000000000041083D
:104ECC006108610841084108410821006108410856
:104EDC00400840086010C020A349087B288B288B11
:104EEC0008930893E78A078B088BE882877A2562F8
:104EFC00055A2552E4410542C439222160080000BC
:104F0C0000000000000001006010C01802214329BD
:104F1C00433143314331633163318339633142313E
:104F2C004331433163398439A549E651265A065237
:104F3C00055205522552255283412229A1184008B9
:104F4C0000000000210001000000200003210742A6
:104F5C00474A474A2B632E84129D57C6B8D63ADF70
:104F6C00BBF7DBF7BAF738E7B2CD2873A241823929
:104F7C00A341A4410552A86A2A8311B519EFBCF7C5
:104F8C00DCF7FDF7FEFFDEFF77FF56F715F78BA476
:104F9C00604167836BA4445AA24142390229C22062
:104FAC00A11081086000600040002000200020005B
:104FBC002000000000002000000000000000200085
:104FCC002000200020004108410841086108200011
:104FDC00400060088010E028C451087B088B078BC8
:104FEC00078BE78AC682078BE78AC78286720462C0
:104FFC00045A0552C341C439A331E0182000000003
:10500C00200000000100010040088010E11802217E
:10501C002229222942296331423163314331223121
:10502C0043318439C5412652685A475A0652E551D4
:10503C000552265A255A0552A3414231C120400837
:10504C0000000000200000000000A2106429E639D6
:10505C00E639474A6C6B708C94ADD9D619DF3AE7B8
:10506C00BAEFBAF799F7F7E62C9CE3496239823923
:10507C00A341A441E55147624A8311B539EFDCFFE6
:10508C00DCF7DDF7FEFFDEFF78F778FF53D6E98B10
:10509C0005736EC50A9CE251245A665AA44102213A
:1050AC002221E1188008A0084008400020002000C0
:1050BC002000000000000000200020008110821061
:1050CC0041082000200061082008400840086008C2
:1050DC0040084000A01842316662087B288B078B81
:1050EC00C68A2793078BE68AC78AC78265720462D1
:1050FC00045AE451A341A3398331C0184000200065
:10510C00000000000100010860088010A018E118E0
:10511C00E120012102290229012922292231022917
:10512C002231A441064A26520652C5496341E55133
:10513C00E5510552E449265A05526339222980105B
:10514C00000000000000410040080321C6398852CD
:10515C00C95A2A634F8432A556C6F8D618DF9AEF7F
:10516C0059E779EF38EF91B58662A3496239A341CB
:10517C0083418449E55106622A838FA43AEFFDFFEF
:10518C00BCF7DDF7FEFFDFFF99F778F774DEB0C5EB
:10519C002EB58BA4267BA14923520452E4496331DA
:1051AC002229E118C010A008610840082000200046
:1051BC0020002000000000002000200041084108D1
:1051CC000000000061088210200840086008610897
:1051DC0060084008A018423186620883288B278B10
:1051EC00E68A2793068BC58AC68AC6824572E36116
:1051FC00E459E451C449E441A33901216008200079
:10520C000000000001000100200060088010C1189F
:10521C00C118C018C018C020C120E12802292231B1
:10522C004331633984398439433963396341265AAC
:10523C0005520552A341C449054AA439A53923296D
:10524C00811061000000000081102321C639EA5A48
:10525C002E8453AD77CED8D6F8D67AE79AEFBAF734
:10526C0099F7DAFF54CE897BA34982418341C4412B
:10527C0083418449E5510662C8724E9CF8E6DCF71E
:10528C00BCF7DDF7DEF7DFFFBBFF9AF7D6DEB4DE47
:10529C0052D66A9C467BC56A8462C349C34921299C
:1052AC00C018C018E118A008610860084008400840
:1052BC00400840002000000000000000000020001A
:1052CC0000000000E318E31840086008600881083B
:1052DC0080088008C1186231A6622883488B279306
:1052EC002793679B269326930793E68A657A036236
:1052FC00E359E459E4512552A4394229A01020085D
:10530C00000000000000000020006008A010C11880
:10531C00C118A018A018A018A018E12022316331E0
:10532C00633963314331233123318441E549886248
:10533C00675A2552A441C549E549A439E541A5312F
:10534C0044292319C210C208E31865294842CE7BB0
:10535C0094ADB8D67BEFBBF7BBF79AEF9AEF9AF701
:10536C00BAFFF7E66D94455AA351C451E449A449D8
:10537C00634163418449C4516762EC8B76D6BCF7B8
:10538C00BCF7DEFFDEF7DFFF9BF79BF738EF16E786
:10539C00B4DE8FBDCBAC0DB5C98B856224524231C6
:1053AC00E020E018C0188008400840086008610838
:1053BC006008200000002000000000000000000039
:1053CC00000020002421E318601060088008811080
:1053DC00C110C1182221A339A66248836893479350
:1053EC004793879B679B88A388A3479BC58244727E
:1053FC00E361E459055A255AC44163310121A118CE
:10540C0080104008200020006008A010E118E1186E
:10541C00C118C118C120E120E1200229433184398F
:10542C0084394331222922294339A441E549475281
:10543C00064AE549A441054AC5418431A439843161
:10544C008531C631C631E739A952AE73B294D6B59F
:10545C00D9D65BEFBCF7BCF7BCF79AEF59E779EFFD
:10546C0038EFEFAC655A245AE459C451A449633956
:10547C0063396341A449E55966628A7BF4C5BCF77C
:10548C00BCF7DEFFDEFFDFFFDDF7BCF79AF778F73E
:10549C00F4E610CE4DB58BA4635A814141390129F4
:1054AC0021290129E118A01081106008600860080A
:1054BC0040082000000000000000200020004008F0
:1054CC00000041082421C2186010600860088008A0
:1054DC00E21823218431054AC76A8A8BCA9BA99B8F
:1054EC004793879B88A3E9ABE9B388A30693857A96
:1054FC00036AE359045A255A0552C441833983314E
:10550C00A4312221800840086008A010E120E2208C
:10551C00E118C120E120E1282229423163316339AD
:10552C00433122290229222943318439A439C44127
:10553C00A439C441E541264AE539843184316429D2
:10554C008531E639E631273A8D73D6B5FBDEFBDEC5
:10555C003BE7BDF7FDFF9BEF7AEFBBF79AF759EFEF
:10556C00D3C52873C349055AE559C45183416339DE
:10557C0063396341A449265A6662E86A31AD9AEFF1
:10558C009CEFBDF7DEFFBFFFDDF7DCF7BBF7B9F72C
:10559C00B7FF14E7B2DE4994804140394131834171
:1055AC00A4418339422901210321A110400840085C
:1055BC0040084000000000000000200020004108CE
:1055CC00400882100421A210400840086008C21054
:1055DC00232184310542665A08738A93EBA3EAA30C
:1055EC00689BA8A3E9AB2AB409B4C8AB479BC68A8D
:1055FC002472E361E461055A66620552A339A43949
:10560C000542A331E11880088008C118022102214B
:10561C00E120E120E120E12022294331633963318B
:10562C004329222922292229633184398339843957
:10563C00A439C539E5412642A53184298431642930
:10564C00A431C531A531063ACB5A54ADDADEFBDEB6
:10565C005CE7BDF7BDF79CEFBCF77AEF9AF7B7DEC6
:10566C002D940552255A26622662E559C451E54906
:10567C00A4416341A349255A665A865A8E94F8DE92
:10568C009BEFBDF7DEFFDFFFFEF7FDFFFBF798EFAB
:10569C0096EF75F7D2DE867B803981416139465AA7
:1056AC004652054AC4416331021981104008400832
:1056BC00600840082000200020002000200020006E
:1056CC004008A210C218821020086010C2100321DA
:1056DC006429A531E54146528762E77A488B689385
:1056EC00068B879B09AC4AB429BCC8AB88A307932B
:1056FC00447AE469046205624662465AC4418331C5
:10570C00A33183290119C010C11802212329222990
:10571C00022902290129E12822296331843983399C
:10572C006331433143292229423163316331632987
:10573C008331A431A531C53964294321632923213F
:10574C0084292642684A2B63AE7375AD9AD65DEFF9
:10575C00BEF7BEF7BDF7FDFFFDFF7AEF19E731ADE0
:10576C00A862C4492662676A266AE559065A265A0F
:10577C00E549A441E449255A465A865A0C8435C653
:10578C00BBEFBDF7BEFFDFFFDDF7BCEFFCFFD9F7CA
:10579C0056EFB6F7EFC5246B835A445AE4490973A4
:1057AC00875A064A8339A018400820002000400878
:1057BC00400820002000400861084108200000003B
:1057CC002000610861084108200881100319442158
:1057DC00642964298431E541C349C351246A647A3C
:1057EC0043722693E9AB2AB429BCE8B3C8AB479BF8
:1057FC008582046A056A0562E55966622552A339F9
:10580C0062314221E018E010022143294329232967
:10581C00022902290229022922298339A439A4390F
:10582C00843163312229E120222963314331422919
:10583C0063298431A431C531432123212219E1107C
:10584C006429884A6C6BB194D7B5DBDE3DE77EEFFB
:10585C00DFFF9EF79DF7DDFFBCF79BEFB7DE8B7B81
:10586C00E549C451C559266287722662265A465AA2
:10587C00E549C449E551E4512552A75AAB7393ADA0
:10588C00BCEFBDF77DF7DFFFDEEFDDEFDCF7BAF73E
:10589C0098F715EF8EC5AAACC8934362656249832D
:1058AC00E551E230A120601840084008400840084B
:1058BC002000200041088210A2188110400800002E
:1058CC0020004008200040000000C31865298529ED
:1058DC006329422162298331A339A341E351236215
:1058EC008472679329AC69B408BC08BC09BC88AB4A
:1058FC00E69AA68A0472046A2562055A0552E4499E
:10590C00A339622942292221633143314331433186
:10591C00223122312231223163396339843984397D
:10592C004331222122212221423163314229432950
:10593C0064318431A4316429432163292221A010CC
:10594C002321684A8D73D29C17CE1BE79DF79DF7D8
:10595C00DEF7FFF7DEF7BDF7BDEFBCF715C6C86283
:10596C000552E459866A4562046205622662065A4B
:10597C00C551A449E651C5492652875A2A6B8F94C2
:10598C005AEFDCF7BCF7FDF7FEF7FDF7FDFFDAFF8A
:10599C00D9FF97FF92E6AECD6AA4636A488345624D
:1059AC00C0280231A12060188010601060084000EF
:1059BC00200020006108A21004210321C2186110EC
:1059CC0060088110400840086208E320652984299A
:1059DC006321222101212121A441A341045A857272
:1059EC000783A89B29AC49B449C428BC29BCA8ABE3
:1059FC0027A3E7928682867A456AE459C449E4492A
:105A0C00C44183318431843163296331633163311F
:105A1C00633983416339433963398441A4418439FF
:105A2C004331222902210121222942310229432911
:105A3C008431843184296429842943210219E11891
:105A4C000219674A4B6B9194B6BDDADE9DF7BEF72F
:105A5C00DEF7FFF7DEEFBDEFBDF79CF7B4BDA86234
:105A6C00C449876A0C9C698BC459045A2662E5594F
:105A7C00E659C549C549A549C549264AA85ACC7B0A
:105A8C003AE7DDFFDCF7DDF7DDF7FDF7DCF7DAF7FA
:105A9C00D9FFD8FFF3E66DBDECB4A78B846AA2499D
:105AAC00E451265A433902290121E118A11060085A
:105ABC004000410861086108A210C218A2186008D1
:105ACC006108A210610861080321242123212221ED
